:020000040000FA
:100000000C9497000C94BF000C94BF000C94BF009C
:100010000C94BF000C94BF000C94BF000C94BF0064
:100020000C94BF000C94BF000C94BF000C94BF0054
:100030000C94BF000C94BF000C94BF000C94BF0044
:100040000C94C3030C94BF000C9491030C946B03A9
:100050000C94BF000C94BF000C94BF000C94BF0024
:100060000C94BF000C94BF00000000002400270087
:100070002A002B2D2D2D2D2D2D2D2D2D2D2D2D2DE2
:100080002D2D2D2D2D2D2D2D2D2D2D2D2D2D2D2DA0
:100090002D2D2D2D2D2D2B007C2020202054656111
:1000A0006D457363617065204848265320454E476F
:1000B000494E454552494E47202020207C002B2D9B
:1000C0002D2D2D2D2D2D2D2D2D2D2D2D2D2D2D2D60
:1000D0002D2D2D2D2D2D2D2D2D2D2D2D2D2D2D2D50
:1000E0002D2D2B0000000000250028002B0004040B
:1000F00004040404040402020202020203030303D0
:1001000003030102040810204080010204081020AB
:100110000102040810200000000800020100000392
:10012000040700000000000000000D043D0611243B
:100130001FBECFEFD8E0DEBFCDBF22E0A2E5B1E029
:1001400001C01D92A031B207E1F711E0A0E0B1E0DB
:10015000E2EAF1E102C005900D92A235B107D9F7AC
:1001600010E0C6E9D0E004C02197FE010E94CC0651
:10017000C539D107C9F70E9456040C94C4080C94E1
:100180000000E4E2F1E02491E0E1F1E09491ECEF91
:10019000F0E0E491EE23C9F0222339F0233001F19D
:1001A000A8F4213019F1223029F1F0E0EE0FFF1F01
:1001B000EC51FF4FA591B4912FB7F894EC918111B8
:1001C00026C090959E239C932FBF08952730A9F0B9
:1001D0002830C9F0243049F7209180002F7D03C0DA
:1001E000209180002F7720938000DFCF24B52F77D8
:1001F00024BDDBCF24B52F7DFBCF2091B0002F771E
:100200002093B000D2CF2091B0002F7DF9CF9E2B4C
:10021000DACF0895AF92BF92CF92DF92EF92FF9222
:100220000F931F93CF93DF936C017B018B01040F1E
:10023000151FEB015E01AE18BF08C017D10759F0BA
:100240006991D601ED91FC910190F081E02DC601FC
:100250000995892B79F7C501DF91CF911F910F91F6
:10026000FF90EF90DF90CF90BF90AF900895FC018A
:10027000448155816081718189E591E00C940A0186
:10028000FC01538D448D252F30E0842F90E0821B9C
:10029000930B541710F0CF96089501970895FC0121
:1002A000918D828D981761F0A28DAE0FBF2FB11D79
:1002B0005D968C91928D9F5F9F73928F90E00895D1
:1002C0008FEF9FEF0895FC01918D828D981731F08B
:1002D000828DE80FF11D858D90E008958FEF9FEFDF
:1002E0000895FC01918D228D892F90E0805C9F4FB5
:1002F000821B91098F739927089589E591E00E94E7
:10030000710121E0892B09F420E0822F089580E01B
:1003100090E0892B29F00E947D0181110C9400004E
:100320000895FC01A48DA80FB92FB11DA35ABF4F8A
:100330002C91848D90E001968F739927848FA689E4
:10034000B7892C93A089B1898C91837080648C9338
:10035000938D848D981306C00288F389E02D8081E7
:100360008F7D80830895EF92FF920F931F93CF9319
:10037000DF93EC0181E0888F9B8D8C8D98131AC0E0
:10038000E889F989808185FF15C09FB7F894EE89C7
:10039000FF896083E889F989808183708064808324
:1003A0009FBF81E090E0DF91CF911F910F91FF906F
:1003B000EF900895F62E0B8D10E00F5F1F4F0F7317
:1003C0001127E02E8C8D8E110CC00FB607FCFACFD2
:1003D000E889F989808185FFF5CFCE010E949101DE
:1003E000F1CFEB8DEC0FFD2FF11DE35AFF4FF082A3
:1003F0009FB7F8940B8FEA89FB8980818062CFCF09
:10040000CF93DF93EC01888D8823B9F0AA89BB894B
:10041000E889F9898C9185FD03C0808186FD0DC036
:100420000FB607FCF7CF8C9185FFF2CF808185FF57
:10043000EDCFCE010E949101E9CFDF91CF910895D8
:100440003FB7F8948091530190915401A0915501C8
:10045000B091560126B5A89B05C02F3F19F0019613
:10046000A11DB11D3FBFBA2FA92F982F8827BC010E
:10047000CD01620F711D811D911D42E0660F771F36
:10048000881F991F4A95D1F708958F929F92AF9236
:10049000BF92CF92DF92EF92FF926B017C010E949C
:1004A00020024B015C01C114D104E104F104B9F054
:1004B0000E942002681979098A099B09683E7340E5
:1004C0008105910580F321E0C21AD108E108F10805
:1004D00088EE880E83E0981EA11CB11CE4CFFF902B
:1004E000EF90DF90CF90BF90AF909F908F90089546
:1004F00042E050E068E171E089E591E00C940A0186
:100500000F931F93CF93DF938C01D0E0C0E0F801ED
:10051000EC0FFD1F6491662341F089E591E00E9494
:10052000B301892B11F02196F2CF0E9478028C0F33
:100530009D1FDF91CF911F910F910895CF93DF936E
:10054000EC0188819981009711F00E946E07198251
:1005500018821D821C821B821A82DF91CF9108951E
:10056000FC0180819181009711F00C946E07089531
:100570000F931F93CF93DF93EC01888199810097AC
:1005800059F02A813B812617370730F081E0DF914F
:10059000CF911F910F9108958B016F5F7F4F0E9444
:1005A000F707009759F0998388831B830A832C816E
:1005B0003D81232B59F7FC011082E8CF80E0E7CF83
:1005C000EF92FF920F931F93CF93DF936115710505
:1005D00041F480E0DF91CF911F910F91FF90EF9058
:1005E000089541155105B1F07B01EC010C811D818D
:1005F000040F151FB8010E94B802882351F3288107
:1006000039818C819D81B701820F931F0E94BD08A3
:100610001D830C8381E0DECFCF93DF93EC01FB01E0
:1006200001900020E9F73197AF01461B570B0E945C
:10063000E002811103C0CE010E949E02CE01DF9133
:10064000CF910895EF92FF920F931F93CF93DF9373
:10065000EC017B018A01BA010E94B80281110BC032
:10066000CE010E949E02CE01DF91CF911F910F918A
:10067000FF90EF9008951D830C83B70188819981C5
:100680000E94BD08F0CFFC011182108213821282F9
:1006900015821482FB0101900020E9F73197AF0128
:1006A000461B570B0C942203CF93DF93EC01FB0105
:1006B0008617970749F0608171816115710541F0D6
:1006C000448155810E942203CE01DF91CF9108958C
:1006D0000E949E02F9CF1F920F920FB60F92112423
:1006E0002F933F934F935F936F937F938F939F933A
:1006F000AF93BF93EF93FF9389E591E00E9491013F
:10070000FF91EF91BF91AF919F918F917F916F91E9
:100710005F914F913F912F910F900FBE0F901F90BF
:1007200018951F920F920FB60F9211242F938F934B
:100730009F93EF93FF93E0916901F0916A018081AB
:10074000E0916F01F091700182FD1BC0908180915A
:1007500072018F5F8F7320917301821741F0E091D6
:100760007201F0E0E75AFE4F958F80937201FF917E
:10077000EF919F918F912F910F900FBE0F901F902F
:1007800018958081F4CF1F920F920FB60F9211240B
:100790002F933F938F939F93AF93BF938091F601D5
:1007A0009091F701A091F801B091F90130915201B7
:1007B00023E0230F2D3758F50196A11DB11D20937D
:1007C00052018093F6019093F701A093F801B09342
:1007D000F9018091530190915401A0915501B0917C
:1007E00056010196A11DB11D8093530190935401B0
:1007F000A0935501B0935601BF91AF919F918F91F6
:100800003F912F910F900FBE0F901F90189526E8E3
:10081000230F0296A11DB11DD2CFE9E5F1E01382AD
:10082000128288EE93E0A0E0B0E084839583A683F3
:10083000B7838AE091E09183808385EC90E095878F
:10084000848784EC90E09787868780EC90E0918B9A
:10085000808B81EC90E0938B828B82EC90E0958B87
:10086000848B86EC90E0978B868B118E128E138E84
:10087000148E6BE171E086E092E00E94430369E22E
:1008800071E080E092E00E9443038FB7F8944091BA
:10089000F6015091F7016091F8017091F9018FBF55
:1008A0006AE171E08AEF91E00C944303CF93DF9308
:1008B000CDB7DEB7E3970FB6F894DEBF0FBECDBF5E
:1008C000789484B5826084BD84B5816084BD85B52B
:1008D000826085BD85B5816085BD80916E00816037
:1008E00080936E00109281008091810082608093DD
:1008F00081008091810081608093810080918000DF
:100900008160809380008091B10084608093B10009
:100910008091B00081608093B00080917A00846003
:1009200080937A0080917A00826080937A0080912F
:100930007A00816080937A0080917A008068809349
:100940007A001092C100E0916901F0916A0182E0A1
:100950008083E0916501F09166011082E09167016A
:10096000F091680180E1808310927101E0916D0146
:10097000F0916E0186E08083E0916B01F0916C0153
:10098000808180618083E0916B01F0916C018081B6
:1009900088608083E0916B01F0916C0180818068B8
:1009A0008083E0916B01F0916C0180818F7D808369
:1009B0006AE070E080E090E00E944502E0E1F1E052
:1009C0002491ECEFF0E08491882399F090E0880F77
:1009D000991FFC01E859FF4FA591B491FC01EC511E
:1009E000FF4F859194918FB7F894EC91E22BEC93A3
:1009F0008FBF81E00E94C1001A8219821C821B8273
:100A00001E821D8266E072E08E010F5F1F4FC801DB
:100A10000E9454030E9478028EEB90E00E948002B4
:100A200088E990E00E94800282E790E00E948002C4
:100A300080E092E00E943701C8010E9437010E94C5
:100A400078020E947802C8010E94B00246E150E09C
:100A50006FE271E089E591E00E940A010E9478024C
:100A600062E370E080E090E00E94450280E00E9436
:100A7000C10064E170E080E090E00E94450280E007
:100A8000E82E80E0F82E1FA61EA619AA18AA1BAAF7
:100A90001AAA50E040E06AE171E0CE018E960E9411
:100AA00022032FB7F8946091F6017091F7018091BD
:100AB000F8019091F9012FBF209157013091580111
:100AC0002F5F3F4F30935801209357011BA21AA26A
:100AD0001DA21CA21FA21EA22AE0A8010E94490674
:100AE000F80101900020E9F73197AF01401B510B4D
:100AF000B801CE0182960E94220380915701909105
:100B0000580119A618A61BA61AA61DA61CA64AE0DF
:100B1000B8010E946B06F80101900020E9F73197B7
:100B2000AF01401B510BB801CE0188960E942203F1
:100B30001A8219821C821B821E821D8260E072E072
:100B4000C8010E9454034CA55DA568A579A5C801FC
:100B50000E94E002811103C0C8010E949E0266E467
:100B600071E0C8010E940C036C014EA15FA16AA153
:100B70007BA10E94E002811103C0C6010E949E0277
:100B800066E471E0C6010E940C0366E471E00E9415
:100B90000C036AE471E00E940C03BC01CE018E9646
:100BA0000E945403C8010E94B002CE0188960E94A0
:100BB000B002CE0182960E94B0028091FA0190911B
:100BC000FB01009709F442C06EA57FA56115710570
:100BD000D9F14091FC015091FD012AA93BA942178E
:100BE000530790F10E94BD088AA99BA99093FF0129
:100BF0008093FE011BAA1AAACE018E960E94B00213
:100C000081E00E94C1008AEF91E00E9437010E94BA
:100C1000780262E370E080E090E00E94450280E0AC
:100C20000E94C10068EE73E080E090E00E944502FF
:100C3000E114F10409F427CF0E947D01882309F40F
:100C400022CF0E9400001FCF0E946E078EA59FA595
:100C50009093FB018093FA0188A999A99093FD01D3
:100C60008093FC018AA99BA99093FF018093FE01C8
:100C70001FA61EA619AA18AABDCF8AEF91E00E944E
:100C8000B00280E092E00E94B00286E092E00C9414
:100C9000B002BB27FA01A62F6217710581059105E5
:100CA000330B30FB66F0AA27660F771F881F991F4A
:100CB000AA1FA21710F0A21B63953850A9F7A05DD8
:100CC000AA3308F0A95DA19336F7B111B193108250
:100CD000CA010C948506BB27FB015527AA27880F5C
:100CE000991FAA1FA41710F0A41B83955051B9F7A0
:100CF000A05DAA3308F0A95DA193009779F7B1111F
:100D0000B1931192CB010C948506DC01FC01672F95
:100D100071917723E1F7329704C07C916D937083D2
:100D20006291AE17BF07C8F308952F923F924F927A
:100D30005F926F927F928F929F92AF92BF92CF926B
:100D4000DF92EF92FF920F931F93CF93DF93CDB774
:100D5000DEB7CA1BDB0B0FB6F894DEBF0FBECDBFEC
:100D600009942A88398848885F846E847D848C84BD
:100D70009B84AA84B984C884DF80EE80FD800C81C6
:100D80001B81AA81B981CE0FD11D0FB6F894DEBFA9
:100D90000FBECDBFED010895EE0FFF1F0590F4913A
:100DA000E02D09940F931F93CF93DF938230910529
:100DB00010F482E090E0E0910E02F0910F0230E03A
:100DC00020E0B0E0A0E0309799F42115310509F456
:100DD0004AC0281B390B24303105D8F58A819B8104
:100DE0006115710589F1FB0193838283FE0111C0B6
:100DF000408151810281138148175907E0F048175B
:100E0000590799F4109761F012960C931297139664
:100E10001C933296CF01DF91CF911F910F910895CE
:100E200000930E0210930F02F4CF2115310551F0FB
:100E30004217530738F0A901DB019A01BD01DF0118
:100E4000F801C1CFEF01F9CF90930F0280930E020A
:100E5000CDCFFE01E20FF31F819391932250310910
:100E600039832883D7CF20910C0230910D02232B98
:100E700041F4209102013091030130930D0220933F
:100E80000C0220910001309101012115310541F43E
:100E90002DB73EB74091040150910501241B350B3D
:100EA000E0910C02F0910D02E217F307A0F42E1B63
:100EB0003F0B2817390778F0AC014E5F5F4F2417BE
:100EC000350748F04E0F5F1F50930D0240930C0200
:100ED000819391939FCFF0E0E0E09CCFCF93DF939D
:100EE0000097E9F0FC01329713821282A0910E0262
:100EF000B0910F02ED0130E020E01097A1F42081C5
:100F00003181820F931F20910C0230910D0228171E
:100F1000390709F061C0F0930D02E0930C02DF91F4
:100F2000CF910895EA01CE17DF07E8F54A815B818A
:100F30009E0141155105B1F7E901FB83EA8349910F
:100F40005991C40FD51FEC17FD0761F48081918181
:100F50000296840F951FE90199838883828193818A
:100F60009B838A83F0E0E0E012968D919C91139729
:100F70000097B9F52D913C911197CD010296820F02
:100F8000931F20910C0230910D022817390739F672
:100F9000309751F510920F0210920E02B0930D028D
:100FA000A0930C02BCCFD383C28340815181840FB4
:100FB000951FC817D90761F44E5F5F4F88819981EB
:100FC000480F591F518340838A819B819383828379
:100FD0002115310509F0B0CFF0930F02E0930E0216
:100FE0009ECFFD01DC01C0CF13821282D7CFB0E0CB
:100FF000A0E0EDEFF7E00C9497068C01009751F418
:10100000CB010E94D2068C01C801CDB7DEB7E0E16A
:101010000C94B306FC01E60FF71F9C012250310926
:10102000E217F30708F49DC0D901CD91DC91119727
:10103000C617D70798F0C530D10530F3CE01049715
:101040008617970708F3C61BD70B2297C193D19336
:101050006D937C93CF010E946E07D6CF5B01AC1AD3
:10106000BD0A4C018C0E9D1EA0910E02B0910F0284
:10107000512C412CF12CE12C109731F580910C0270
:1010800090910D028815990509F05CC04616570627
:1010900008F058C08091000190910101009741F43F
:1010A0008DB79EB74091040150910501841B950BAB
:1010B000E817F90708F055C0F0930D02E0930C0211
:1010C000F90171836083A0CF8D919C911197129645
:1010D0006C90129713967C901397A815B90559F543
:1010E0006C0142E0C40ED11CCA14DB0420F1AC0137
:1010F0004A195B09DA011296159780F062827382B1
:1011000051834083D9016D937C93E114F10471F014
:10111000D7011396FC93EE93129776CF22968C0FFD
:101120009D1FF90191838083F301EFCFF0930F02AC
:10113000E0930E0269CF4816590608F42C017D0190
:10114000D3019ACFCB010E94D2067C01009749F0CF
:10115000AE01B8010E94B408C8010E946E07870161
:1011600053CF10E000E050CFFB01DC0102C0019042
:101170000D9241505040D8F70895FB01DC010190D9
:101180000D920020E1F7089510E0C6E9D0E004C018
:10119000FE010E94CC062196C739D107C9F7F89401
:1011A000FFCF00001002800000000000B3010A0120
:1011B0004001000271014F0163010D0A0053657285
:1011C00069616C204F7574707574004272313A20F9
:1011D00000596F7572204C6F6767657220697320C4
:1011E000776F726B696E6700202C200020446F6E51
:0411F000652E200048
:107E0000112484B714BE81FFF0D085E080938100F7
:107E100082E08093C00088E18093C10086E0809377
:107E2000C20080E18093C4008EE0C9D0259A86E02C
:107E300020E33CEF91E0309385002093840096BBD3
:107E4000B09BFECF1D9AA8958150A9F7CC24DD24C4
:107E500088248394B5E0AB2EA1E19A2EF3E0BF2EE7
:107E6000A2D0813461F49FD0082FAFD0023811F036
:107E7000013811F484E001C083E08DD089C08234E0
:107E800011F484E103C0853419F485E0A6D080C0E4
:107E9000853579F488D0E82EFF2485D0082F10E0AE
:107EA000102F00270E291F29000F111F8ED06801E7
:107EB0006FC0863521F484E090D080E0DECF843638
:107EC00009F040C070D06FD0082F6DD080E0C81688
:107ED00080E7D80618F4F601B7BEE895C0E0D1E017
:107EE00062D089930C17E1F7F0E0CF16F0E7DF06D8
:107EF00018F0F601B7BEE89568D007B600FCFDCFD4
:107F0000A601A0E0B1E02C9130E011968C91119780
:107F100090E0982F8827822B932B1296FA010C0160
:107F200087BEE89511244E5F5F4FF1E0A038BF0790
:107F300051F7F601A7BEE89507B600FCFDCF97BE46
:107F4000E89526C08437B1F42ED02DD0F82E2BD052
:107F50003CD0F601EF2C8F010F5F1F4F84911BD097
:107F6000EA94F801C1F70894C11CD11CFA94CF0C13
:107F7000D11C0EC0853739F428D08EE10CD085E9AC
:107F80000AD08FE07ACF813511F488E018D01DD067
:107F900080E101D065CF982F8091C00085FFFCCF94
:107FA0009093C60008958091C00087FFFCCF809118
:107FB000C00084FD01C0A8958091C6000895E0E648
:107FC000F0E098E1908380830895EDDF803219F02E
:107FD00088E0F5DFFFCF84E1DECF1F93182FE3DFCA
:107FE0001150E9F7F2DF1F91089580E0E8DFEE27F6
:047FF000FF270994CA
:027FFE00040479
:00000001FF
