:100000000C9413040C943B040C943B040C943B049C
:100010000C943B040C943B040C943B040C943B0464
:100020000C943B040C943B040C943B040C943B0454
:100030000C943B040C943B040C943B040C943B0444
:100040000C941C1A0C943B040C948C1A0C94661A95
:100050000C943B040C943B040C943B040C943B0424
:100060000C94BE1A0C943B04AEB08180A1A6A83FAC
:10007000AD8B32C8D300D580D91FDA12DB40AF0078
:100080000005072060000000000000005F00000085
:1000900007000700147F147F14242A7F2A122313D9
:1000A00008646236495620500008070300001C22ED
:1000B00041000041221C002A1C7F1C2A08083E081F
:1000C0000800807030000808080808000060600020
:1000D00020100804023E5149453E00427F40007214
:1000E000494949462141494D331814127F1027458B
:1000F0004545393C4A4949314121110907364949A9
:100100004936464949291E000014000000403400C9
:10011000000008142241141414141400412214087D
:1001200002015909063E415D594E7C1211127C7F35
:10013000494949363E414141227F4141413E7F4943
:100140004949417F090909013E414151737F08082E
:10015000087F00417F41002040413F017F08142279
:10016000417F404040407F021C027F7F0408107F97
:100170003E4141413E7F090909063E4151215E7FD2
:1001800009192946264949493203017F01033F40A5
:1001900040403F1F2040201F3F4038403F6314082D
:1001A000146303047804036159494D43007F4141BE
:1001B000410204081020004141417F040201020471
:1001C0004040404040000307080020545478407FDE
:1001D000284444383844444428384444287F385418
:1001E00054541800087E090218A4A49C787F0804BF
:1001F000047800447D40002040403D007F102844AA
:100200000000417F40007C047804787C0804047876
:100210003844444438FC1824241818242418FC7C3E
:1002200008040408485454542404043F44243C4023
:1002300040207C1C2040201C3C4030403C44281086
:1002400028444C9090907C4464544C4400083641BF
:10025000000000770000004136080002010204029D
:100260003C2623263C000000002300260029000035
:10027000030C0F30333C3FC0C3CCCFF0F3FCFF5333
:1002800063616E6E696E672E2E2E004932432073B5
:1002900063616E6E65723A0022080D0E20600402E2
:1002A00005060708090203030508020402040704FF
:1002B00007070707070707070202070707080E09CE
:1002C00008080807070908020708070B08090709B3
:1002D00009070808090D07080804040406080307AD
:1002E00007060707050707020306020A07070707AD
:1002F00005060507070B06070505010507080000A9
:10030000000000000000FEFE18181E1E001E1E0049
:100310000000000090F89E90F89E1C00001C000059
:10032000183C26FF66CC88040C183C180C041C22D0
:100330001CC0308E408000001804000C100C80CCD3
:100340007E72F2DE0C80000C1C1010101C0C1C10B5
:100350001E1E0000F0FC061C7CC006FCF0C07C1CCD
:1003600014140E14140000000000606060FCFC60B7
:1003700060600000000C0C00000000005838C0C095
:10038000C0C0000000000000181800C038061804A3
:100390000000F8FC0E060EFCF8040C1C181C0C04E3
:1003A000180CFEFE00001C1C181C86C6663E1C189D
:1003B0001C1C18181818888C062626FEDC040C1C39
:1003C00018180C04C0E0B88CFEFE80040404041C61
:1003D0001C04707E3E3636F6C60C1C1818180C0429
:1003E000F8FC6E6666EECC040C1818181C0C060699
:1003F00006E6761E0600001C1C0000009CFE6666D9
:1004000066FE9C0C1C1818181C0C3C7E666666FC6C
:10041000F80C1C18181C0C04181818181818583840
:100420006060F0F098980C0000000004040CD8D82C
:10043000D8D8D8D8D8000000000000000C9898F058
:10044000F060600C040400000000080C06C6E676AC
:100450003C180000001818000000E03008C4F63A0C
:100460001A1AF2FA7E0408F00C30604C9C98988CB2
:100470009C9C90484C2000C0F8BE86BEF8C0001876
:100480001C04040404041C18FEFE66666666FEDC9A
:100490001C1C181818181C0CF8FC0E06060E9C08DC
:1004A000040C1C18181C0C04FEFE0606060EFCF8B4
:1004B0001C1C1818181C0C04FEFE66666666661C7A
:1004C0001C1818181818FEFE66666666061C1C00C6
:1004D00000000000F8FC0E0606C6CEDCC8040C1CAA
:1004E000181818180C04FEFE60606060FEFE1C1CEC
:1004F000000000001C1CFEFE1C1C8080000000FE92
:10050000FE0C1C1818181C0CFEFE603078EC8602DD
:100510001C1C000000041C18FEFE00000000001C53
:100520001C1818181818FEFE0E7CE000E07C0EFE69
:10053000FE1C1C00000C1C0C00001C1CFEFE1C7889
:10054000E080FEFE1C1C0000040C1C1CF8FC0E06C7
:1005500006060EFCF8040C1C1818181C0C04FEFEF1
:100560006666667E3C1C1C0000000000F8FC0E065F
:1005700086060EFCF8040C1C18181C0C1C24FEFE2D
:100580006666E6E6BE1C001C1C0000000C1C181071
:100590003C7E666666EECC0C1C1818181C0C060611
:1005A00006FEFE0606060000001C1C000000FEFE03
:1005B00000000000FEFE040C1C18181C0C04021E97
:1005C000FCE000E0FC1E020000001C1C1C000000FF
:1005D00006FEF800F0FE0EFEF000F8FE0600001C1D
:1005E0001C1C0000001C1C1C0000060EF8F0F80E7D
:1005F00006181C0400041C18060E38F0F0380E060D
:100600000000001C1C000000060686E6761E0E0692
:10061000181C1C1818181818FEFE0606FCFCC0C092
:100620000638C000000004180606FEFEC0C0FCFC30
:1006300020380E0E382000000000000000000000EE
:10064000000000008080808080808080020604009E
:1006500000001098D858F8F0000C1C18180C1C104A
:10066000FEFE301838F0E01C1C0C181C0C04E0F0E6
:1006700018183830040C18181C0CE0F0381830FE2C
:10068000FE040C1C180C1C1CE0F0D8D8D8F0E004B8
:100690000C181818180818FCFE1A1A001C1C000068
:1006A000E0F0381830F8F864ECDCD8CCFC7CFEFEC6
:1006B000301818F8F01C1C0000001C1CFAFA1C1C56
:1006C00000FAFAC0FC7CFEFEE0F098081C1C000456
:1006D0001C18FEFE1C1CF8F81018F8F01818F8F09A
:1006E0001C1C00001C1C00001C1CF8F8301818F81A
:1006F000F01C1C0000001C1CE0F0381838F0E0046E
:100700000C1C181C0C04F8F8301838F0E0FCFC0C39
:10071000181C0C04E0F0381830F8F8040C1C180C05
:10072000FCFCF8F83018181C1C00000070F8D8D831
:10073000D890081818181C0C18FCFE1818000C1C6F
:100740001818F8F8000000F8F80C1C18180C1C1CFD
:1007500038F8C000C0F83800001C1C1C000018F855
:10076000E000F038F000E0F81800001C1C0C000C51
:100770001C1C00001838E0E03818181C04041C1871
:1007800018F8E000E0F8180084FCF83C0400189821
:10079000D878381C1C18181880FC7E0606007CFCD3
:1007A000C0C0FEFC06067EFC80C0C0FC7C00603041
:1007B000307060603000000000000000FE020202A5
:1007C000020202FE1C1010101010101C680017808E
:1007D000400200000000240027002A000000000062
:1007E000250028002B00040404040404040402026D
:1007F00002020202030303030303010204081020A0
:1008000040800102040810200102040810200000AA
:1008100000080002010000030407000000000000BF
:100820000000DD1B6F2011241FBECFEFD8E0DEBF1C
:10083000CDBF27E0A0ECB3E001C01D92AA3DB207F6
:10084000E1F713E0A0E0B1E0ECE3FAE402C00590C8
:100850000D92A03CB107D9F714E0C2E1D4E004C086
:100860002197FE010E946C22C131D107C9F70E9475
:10087000F31C0C9411250C940000DB01FC018A533D
:100880009F4F2C91208311962C91119721831296C2
:100890002C91129722833396E817F90791F7089560
:1008A00096E0899FD0011124A75EB84F90967C9363
:1008B0006E935F9791E091969C939197E091860754
:1008C000F091870790918507992339F0309751F07F
:1008D000811108C0809135070994309719F05C9612
:1008E0008C91FACF08950895833081F028F48130F7
:1008F00099F08230A9F008958730A9F08830C9F0C6
:100900008430B1F4809180008F7D03C0809180009D
:100910008F7780938000089584B58F7784BD089584
:1009200084B58F7DFBCF8091B0008F778093B0002E
:1009300008958091B0008F7DF9CF1F93CF93DF93FF
:10094000282F30E0F901E25FF74F8491F901E6507A
:10095000F84FD491F901EA51F84FC491CC23A9F092
:10096000162F81110E947404EC2FF0E0EE0FFF1F90
:10097000E452F84FA591B4918FB7F894EC9111110E
:1009800008C0D095DE23DC938FBFDF91CF911F91FC
:100990000895DE2BF8CFCF93DF9390E0FC01E65073
:1009A000F84F24918A51984FFC0184918823C9F013
:1009B00090E0880F991FFC01EE52F84FA591B49179
:1009C000FC01E452F84FC591D49161110DC09FB75D
:1009D000F8948C91209582238C93888128232883F6
:1009E0009FBFDF91CF910895623051F49FB7F89483
:1009F0003C91822F809583238C93E8812E2BEFCF1F
:100A00008FB7F894EC912E2B2C938FBFEACF3FB782
:100A1000F8948091F0059091F105A091F205B091C4
:100A2000F30526B5A89B05C02F3F19F00196A11D1F
:100A3000B11D3FBFBA2FA92F982F8827BC01CD0128
:100A4000620F711D811D911D42E0660F771F881F87
:100A5000991F4A95D1F708958F929F92AF92BF92B6
:100A6000CF92DF92EF92FF924B015C010E9407054B
:100A70006B017C010E9407056C197D098E099F0995
:100A8000683E734081059105A8F321E0821A910820
:100A9000A108B10888EEC80E83E0D81EE11CF11C45
:100AA00081149104A104B10429F7FF90EF90DF9025
:100AB000CF90BF90AF909F908F9008952FB7F894EC
:100AC0006091EC057091ED058091EE059091EF0538
:100AD0002FBF08954F925F926F927F929F92AF9235
:100AE000BF92CF92DF92EF92FF920F931F93CF931B
:100AF000DF9300D01F92CDB7DEB7F090C907809189
:100B0000CC079091CD07A091CE07B091CF07892B4C
:100B10008A2B8B2BD9F00E94070500916C0610914F
:100B20006D0620916E0630916F06601B710B820B73
:100B3000930B0091CC071091CD072091CE073091F7
:100B4000CF076017710782079307C8F20E94070555
:100B500060936C0670936D0680936E0690936F069B
:100B6000E091D407F091D507309759F04091D00724
:100B70005091D1076091D2077091D3078F2D0995BD
:100B8000F82E00916A0610916B064F2C512C712C97
:100B9000612C0115110509F45EC0D8011C96EC907A
:100BA0001C978091CA079091CB078436910510F469
:100BB0001C961C92D801ED91FC91A280B380198201
:100BC0001A821B82FF2089F1F8013696D12CC12CA4
:100BD0002191222319F19280992001F130E050E017
:100BE00040E02F5F3F4F4F4F5F4FC301B2010E9464
:100BF0000B229B01AC01892D90E0B0E0A0E0BC018C
:100C0000CD016F5F7F4F8F4F9F4F0E940B22A1E05E
:100C1000B0E0AC0FBD1FAC0DBD1D8C93BFEFCB1A68
:100C2000DB0A83E0C816D10499F6D8011D964D91D0
:100C30005C911E9712966D917C919E012F5F3F4FA4
:100C4000C801F5010995D8011C96EC921C971496E1
:100C50000D911C919ECF80916806909169068C0140
:100C60000F5F1F4F10936906009368064997B4F110
:100C70000E945E05C0906406D0906506E09066060E
:100C8000F09067069B01AC012C193D094E095F09E4
:100C900021F421E030E040E050E088EE93E0089F4E
:100CA000B001099F700D189F700D1124072E000CC4
:100CB000880B990B0E942F223093CB072093CA07F1
:100CC00010926906109268060E945E0560936406A1
:100CD0007093650680936606909367060F900F9059
:100CE0000F90DF91CF911F910F91FF90EF90DF90C8
:100CF000CF90BF90AF909F907F906F905F904F90FC
:100D000008950F931F93CF93DF93C82FD62F86E0BC
:100D1000C89FF0011124E75EF84F11A2878D90A1C2
:100D200081309105F1F058F082309105F1F103978F
:100D300009F440C0DF91CF911F910F910895662370
:100D4000C9F361E070E08C2F0E9450040E945E05A0
:100D50006093710770937207809373079093740781
:100D6000E9CF0E945E0500917107109172072091F2
:100D7000730730917407AB01BC01401B510B620B30
:100D8000730B8091830790918407B0E0A0E08417F3
:100D90009507A607B70748F462E070E08C2FDF9153
:100DA000CF911F910F910C94500463E070E0D1112A
:100DB000C1CFF4CF70E060E0F1CF80E991E0089519
:100DC00008950895AF92BF92CF92DF92EF92FF9273
:100DD0000F931F93CF93DF936C017B018B01040F63
:100DE000151FEB015E01AE18BF08C017D10759F0FF
:100DF0006991D601ED91FC910190F081E02DC60141
:100E00000995892B79F7C501DF91CF911F910F913A
:100E1000FF90EF90DF90CF90BF90AF900895FB01CF
:100E200044815581608171810C94E206FC01538DEF
:100E3000448D252F30E0842F90E0821B930B5417B4
:100E400010F0CF96089501970895FC01918D828D41
:100E5000981761F0A28DAE0FBF2FB11D5D968C91DA
:100E6000928D9F5F9F73928F90E008958FEF9FEF19
:100E70000895FC01918D828D981731F0828DE80FD5
:100E8000F11D858D90E008958FEF9FEF0895FC018F
:100E9000918D228D892F90E0805C9F4F821B91095C
:100EA0008F739927089580E796E00E94470721E015
:100EB000892B09F420E0822F089580E090E0892BAF
:100EC00029F00E94530781110C9400000895FC0141
:100ED000A48DA80FB92FB11DA35ABF4F2C91848D9B
:100EE00090E001968F739927848FA689B7892C93F8
:100EF000A089B1898C91837080648C93938D848D4B
:100F0000981306C00288F389E02D80818F7D80834D
:100F10000895EF92FF920F931F93CF93DF93EC010D
:100F200081E0888F9B8D8C8D98131AC0E889F98990
:100F3000808185FF15C09FB7F894EE89FF89608393
:100F4000E889F98980818370806480839FBF81E014
:100F500090E0DF91CF911F910F91FF90EF90089556
:100F6000F62E0B8D10E00F5F1F4F0F731127E02E31
:100F70008C8D8E110CC00FB607FCFACFE889F98969
:100F8000808185FFF5CFCE010E946707F1CFEB8D01
:100F9000EC0FFD2FF11DE35AFF4FF0829FB7F8943D
:100FA0000B8FEA89FB8980818062CFCFCF93DF935B
:100FB000EC01888D8823B9F0AA89BB89E889F98971
:100FC0008C9185FD03C0808186FD0DC00FB607FCA6
:100FD000F7CF8C9185FFF2CF808185FFEDCFCE01D9
:100FE0000E946707E9CFDF91CF910895CF93DF93F8
:100FF000EC019C818E81981758F4E881F981008476
:10100000F185E02D42E0CE0109958C818F5F8C83C4
:10101000DF91CF910895DC01ED91FC910084F18581
:10102000E02D40E009940F931F93CF938C01FC01B6
:101030006483C085C60F6C2F6F700E940B086C2FE5
:1010400062956F706061C801CF911F910F910C94F0
:101050000B08FC012781269526952695621720F41A
:101060006583606B0C940B0808951F93CF93DF93F7
:10107000EC01142F8E81681718F4CE010E9413081A
:10108000612FCE01DF91CF911F910C942908CF924F
:10109000DF92EF92FF920F931F93CF93DF93EC01B8
:1010A000162FC42ED22E8F81869586958695081789
:1010B00010F00FEF080FFD2C0F15B0F08E811817F0
:1010C00020F4612FCE010E9413086F2DCE010E94E3
:1010D0002908E12ECE1430F060E0CE010E94F60720
:1010E000E394F8CFF394E8CF4D2D612FCE01DF913B
:1010F000CF911F910F91FF90EF90DF90CF900C94C4
:1011000035080F930091A3070695069506950150A3
:101110004091A207415020E060E08CE997E00E94F6
:10112000470881E09091A607911101C080E080936B
:10113000A60760E48CE997E00F910C940B082F92BE
:101140003F924F925F926F927F928F929F92AF9257
:10115000BF92CF92DF92EF92FF920F931F93CF93A4
:10116000DF9300D000D01F92CDB7DEB7DC011B9615
:101170000D911C910115110509F468C19D838C83A3
:10118000F8014491319654913196649031962491AE
:10119000E22EF12CF7E0EF0EF11C73E0F594E794EA
:1011A0007A95E1F7E982F801349634913196E49129
:1011B000631748F08E2F90E0FC01E30FF11D6E17CE
:1011C0001F060CF487C06D3031F5AC81BD811696D9
:1011D0008C9181111AC081E090E00F900F900F90D8
:1011E0000F900F90DF91CF911F910F91FF90EF9093
:1011F000DF90CF90BF90AF909F908F907F906F9037
:101200005F904F903F902F90089560E08C819D817A
:101210000E941308E0CF6A3009F018C1EC81FD810B
:101220008185D5808E9DD00C1124878186958695E9
:101230008695D81630F08285882319F082E082875F
:10124000D12C4D2D60E08C819D810E943508AC81B0
:10125000BD811A968C911A97823008F4BCCF1596EE
:101260002C9115971B96ED91FC911C9700E03097FF
:1012700039F03396E49119960C91E09F002D1124DA
:1012800010E0095F1F4F33E0159507953A95E1F798
:101290008FEF820F080FEC81FD8146814150648100
:1012A000CF010E944708AC81BD8119968C91199796
:1012B0006D2D8E9D600D1124660F660F660F1796BB
:1012C0008C91861708F460E060648C819D810E9497
:1012D0000B0881CF4527542745270A5F1F4F631B03
:1012E000EC81FD8121844230510508F06DC0452B11
:1012F00009F0212C6E9CC0016F9C900D1124689FF9
:10130000F001699FF00D11240E0F1F1F512CAC81AD
:10131000BD811496BC91BA83EC81FD81F581FB837C
:10132000862C912CAA24A394B12C312C89813816B7
:1013300008F086C0412CAC81BD8119968C9148166D
:1013400008F077C0311002C0442041F0EC81FD81EB
:1013500045814F5F6A81CF010E943508D12CC12C95
:10136000C61408F05AC0F801EC0DFD1D749055200C
:1013700061F0EA14FB0449F4E72DF0E0052C02C00B
:10138000F595E7950A94E2F77E2EAC81BD8119961A
:101390008C91823081F4442009F43BC072948FE038
:1013A0007822E72DF0E0E159FD4F7490672D8C8194
:1013B0009D810E94F607672D8C819D810E94F60712
:1013C000EFEFCE1ADE0ACCCF277038E0532E521A38
:1013D000211101C0512C50E040E030E020E0F80144
:1013E000461740F4E40FF51FE4912E0F311D4F5FB7
:1013F0005F4FF5CFE60FF11D6490E29EF001E39E92
:10140000F00DF29EF00D11248E0F9F1F080F191F73
:101410007ECFB72DBF707B2EC4CFD12C2D1439F0C9
:1014200060E08C819D810E94F607D394F7CF4394AE
:1014300082CF3394080D191DFFEFAF1ABF0A76CF84
:101440006B818C819D810E942908C5CE90E080E04F
:10145000C4CE20910004260F3327331F21323105DB
:10146000ECF420915E06FC0190E080E0243069F00D
:1014700082E00895A09100042191AC0140525C4F9C
:10148000A40FB52FB11D2C930196861798F3809168
:101490000004680F6093000480E0089581E00895DF
:1014A00010925E0681E080933D061092380661E05E
:1014B00082E10E949D0461E083E10E949D04E9EBCA
:1014C000F0E080818E7F808380818D7F808388E4BF
:1014D0008093B80085E48093BC000895CF93DF9398
:1014E00091E09093DF038823B9F0C091B800D091C8
:1014F000BA008091BC008A7B8093BC0060E082E1EE
:101500000E949D0460E083E10E949D040E94500AB5
:10151000D093BA00C093B800DF91CF910895CF92D5
:10152000DF92EF92FF920F931F93CF93DF93D82F09
:10153000C62F613208F098C00E9407056B017C013C
:1015400080915E0681116BC081E080935E0680937E
:101550003D069FEF90933C0610923B069C0F9093A4
:101560003A068093390680913906DD0FD82BD09347
:10157000390680913806813009F078C0109238061B
:101580000E9407056B017C01809139068093BB00A6
:101590008091600690916106A0916206B091630609
:1015A000892B8A2B8B2BA1F00E94070500916006E6
:1015B0001091610620916206309163066C197D09D5
:1015C0008E099F09061717072807390708F448C02E
:1015D0008091BC0083FDD8CF85EC8093BC000E9435
:1015E00007056B017C0180915E06813009F440C0E3
:1015F00080913B068C1710F4C0913B06E8E1F6E0C1
:10160000AEE3B6E080E08C1355C08C2FDF91CF9114
:101610001F910F91FF90EF90DF90CF9008958091F0
:10162000600690916106A0916206B0916306892BD5
:101630008A2B8B2B09F484CF0E940705009160064A
:101640001091610620916206309163066C197D0944
:101650008E099F09061717072807390708F070CF6A
:1016600080915F060E946E0AC0E0CFCF85EEB5CFB5
:101670008091600690916106A0916206B091630628
:10168000892B8A2B8B2B09F4AECF0E940705009182
:1016900060061091610620916206309163066C1914
:1016A0007D098E099F09061717072807390708F0D3
:1016B0009ACFD6CF91919D938F5FA5CF8F929F9216
:1016C000AF92BF92CF92DF92EF92FF920F931F9350
:1016D000CF93DF93D0911706D13208F0D7C0182FDF
:1016E000C09116060E9407056B017C0180915E0681
:1016F00081116BC082E080935E0610933D068FEFF0
:1017000080933C0610923B06D0933A06A6EFB5E0D4
:10171000E8E1F6E080E0D81391C01092390680919C
:101720003906CC0FC82BC09339068091380681301A
:1017300009F088C0109238060E9407056B017C01F1
:10174000809139068093BB0080916006909161067C
:10175000A0916206B0916306892B8A2B8B2BA1F096
:101760000E940705009160061091610620916206B3
:10177000309163066C197D098E099F0906171707BA
:101780002807390708F442C08091BC0083FDD8CFF8
:1017900085EC8093BC000E9407056B017C01809161
:1017A0005E06823009F450C080913C068F3F09F4F8
:1017B0006FC080913C06803209F46CC080913C0679
:1017C000803309F469C084E026C08091600690915E
:1017D0006106A0916206B0916306892B8A2B8B2B40
:1017E00009F484CF0E9407058090600690906106FE
:1017F000A0906206B09063066C197D098E099F095E
:1018000086169706A806B90608F070CF80915F0685
:101810000E946E0A85E01092F5051092170610924C
:10182000F405DF91CF911F910F91FF90EF90DF9022
:10183000CF90BF90AF909F908F9008959D9191937E
:101840008F5F69CF85EEA5CF80916006909161068C
:10185000A0916206B0916306892B8A2B8B2B09F429
:101860009ECF0E94070500916006109161062091AD
:101870006206309163066C197D098E099F0906176F
:1018800017072807390708F08ACFC0CF81E0C3CFF8
:1018900080E0C1CF82E0BFCF83E0BDCFEF92FF9267
:1018A0000F931F93CF93DF93EC018B017C0183E7B0
:1018B000E80EF11CD7018D919C91FE01E159FF4F7B
:1018C000208131E03093F405209316061092F5053F
:1018D00010921706DC01ED91FC910190F081E02D52
:1018E0000995FE01E059FF4F8081823058F0F701E1
:1018F00080819181DC01ED91FC910190F081E02DDE
:10190000612F099581E00E945E0BCF58DF4F08835D
:101910001983DF91CF911F910F91FF90EF90089560
:1019200021E030E002C0220F331F6A95E2F7FC018C
:10193000EF58FF4F60817181442341F0262B372BF4
:1019400031832083608171810C944E0C20953095F9
:1019500026233723F5CF0895E091E6058091E5052C
:10196000E81730F4F0E0E25CF94F808190E00895F0
:101970008FEF9FEF08959091E6058091E5052FEF99
:101980003FEF981748F4E92FF0E0E25CF94F20812F
:1019900030E09F5F9093E605C90108958091E505C9
:1019A0009091E605891B990B0895CF92DF92EF92F3
:1019B000FF920F931F93CF93DF937C01CB018A019A
:1019C0002091F405222389F0EB016B01C40ED51E92
:1019D000CC15DD0569F06991D701ED91FC9101907D
:1019E000F081E02DC7010995F3CF642F0E94290AE9
:1019F000C801DF91CF911F910F91FF90EF90DF9081
:101A0000CF900895CF93DF931F92CDB7DEB7698350
:101A10002091F4052223F9F020911706203258F086
:101A200021E030E0FC013383228390E080E00F90DE
:101A3000DF91CF9108958091F505E82FF0E0EA500D
:101A4000FA4F998190838F5F8093F50580931706F5
:101A500081E090E0ECCF61E0CE0101960E94290A7E
:101A6000F7CFCF93DF9370E0FB01E25FF74F8491F4
:101A7000FB01E650F84FD4916A51784FFB01C491B5
:101A8000CC23A1F081110E947404EC2FF0E0EE0F42
:101A9000FF1FEB59FD4FA591B491EC91ED2381E02F
:101AA00090E009F480E0DF91CF91089580E090E02C
:101AB000FACF862F642F0C949D04862F642F0C94EC
:101AC000CB040F931F93CF93DF932091DE032F5FFF
:101AD000322F37703093DE0320FF2BC020E831FD1A
:101AE0002064347009F02062205FFC01EC01239631
:101AF00000E011E06485662329F070E0C8010E94CF
:101B00001B226F5F6187322F369F030E30E0311D3D
:101B10001124311110C01682662311F061506187C3
:101B20003196EC17FD0731F7DF91CF911F910F919F
:101B3000089520E0D4CF31503683EECF0F931F931A
:101B4000CF93DF932091DD032F5F322F37703093D7
:101B5000DD0320FF2BC020E831FD2064347009F044
:101B60002062205FFC01EC01239600E011E0648517
:101B7000662329F070E0C8010E941B226F5F618715
:101B8000322F369F030E30E0311D1124311110C069
:101B90001682662311F0615061873196EC17FD07BC
:101BA00031F7DF91CF911F910F91089520E0D4CFAD
:101BB00031503683EECF4F925F926F927F928F9229
:101BC000AF92BF92CF92DF92EF920F931F93CF937A
:101BD000DF933C01EB010E940705F3012785308963
:101BE000621B730B6A307105B0F3F894E881F981D8
:101BF00075B1726065B16D7F65B9CB8488852C2D18
:101C0000281B822F2887BF844A805B801E850C8515
:101C1000DD841F5F0F5FD3949E813F81A984EA8496
:101C20004281D20120E0C32F522F322F328144272C
:101C300088943111380F08F43FEF8195889410FD96
:101C4000430F4795889411FD430F4795889412FDE3
:101C5000430F4795889413FD430F4795889414FDCF
:101C6000430F4795889415FD430F4795889416FDBB
:101C7000430F4795889417FD430F47958894232F6A
:101C80001111242F8C0D422F002C75B900C047FF75
:101C900065B930812227889400C000C0002C65B946
:101CA0003111390F00C0002C75B900C046FF65B96D
:101CB00008F43FEF9195889400C000C0002C65B9EE
:101CC00000FD230F00C0002C75B900C045FF65B9A9
:101CD0002795889401FD230F00C000C0002C65B932
:101CE0002795889400C0002C75B900C044FF65B9E1
:101CF00002FD230F2795889400C000C0002C65B911
:101D000003FD230F00C0002C75B900C043FF65B967
:101D10002795889404FD230F00C000C0002C65B9EE
:101D20002795889400C0002C75B900C042FF65B9A2
:101D300005FD230F2795889400C000C0002C65B9CD
:101D400006FD230F00C0002C75B900C041FF65B926
:101D50002795889407FD230F00C000C0002C65B9AB
:101D60002795889400C0002C75B900C040FF65B964
:101D7000432F0111422F9A0D00C000C0002C65B9FD
:101D800000C000C0002C75B900C047FF65B93181A3
:101D90002227889400C000C0002C65B931113C0F87
:101DA00000C0002C75B900C046FF65B908F43FEFCC
:101DB000EB0DF11D00C000C0002C65B9D0FC230F55
:101DC00000C0002C75B900C045FF65B927958894FF
:101DD000D1FC230F00C000C0002C65B92795889462
:101DE00000C0002C75B900C044FF65B9D2FC230FB8
:101DF0002795889400C000C0002C65B9D3FC230F40
:101E000000C0002C75B900C043FF65B927958894C0
:101E1000D4FC230F00C000C0002C65B9279588941E
:101E200000C0002C75B900C042FF65B9D5FC230F76
:101E30002795889400C000C0002C65B9D6FC230FFC
:101E400000C0002C75B900C041FF65B92795889482
:101E5000D7FC230F00C000C0002C65B927958894DB
:101E600000C0002C75B900C040FF65B9432FD110E8
:101E7000422FC19500C000C0002C65B9CE0D00C036
:101E800000C075B900C047FF65B932812227889428
:101E900000C000C0002C65B93111380F00C0002C03
:101EA00075B900C046FF65B908F43FEF8195889485
:101EB00000C000C0002C65B910FD230F00C0002C2D
:101EC00075B900C045FF65B92795889411FD230FAA
:101ED00000C000C0002C65B92795889400C0002C74
:101EE00075B900C044FF65B912FD230F279588948A
:101EF00000C000C0002C65B913FD230F00C0002CEA
:101F000075B900C043FF65B92795889414FD230F68
:101F100000C000C0002C65B92795889400C0002C33
:101F200075B900C042FF65B915FD230F2795889448
:101F300000C000C0002C65B916FD230F00C0002CA6
:101F400075B900C041FF65B92795889417FD230F27
:101F500000C000C0002C65B92795889400C0002CF3
:101F600075B900C040FF65B9432F1111422F8C0D88
:101F700000C000C0002C65B9119709F086CE20EE94
:101F800031E0D2010E945122DC01CB01F4E0B69590
:101F9000A79597958795FA95D1F730E020E0B9019C
:101FA000EAE94E9E040C611D5E9E600D711D1124B8
:101FB000650D711D860F971FA11DB11D893E43E060
:101FC0009407A105B10508F434C0885E9340A109C7
:101FD000B10942E0B695A795979587954A95D1F7AF
:101FE00047E0849F080E211D949F200D311D112470
:101FF000290F311D6091DC0370E0860F971F820F5F
:10200000931F4091EC055091ED056091EE057091A4
:10201000EF05292F3327420F531F611D711D409378
:10202000EC055093ED056093EE057093EF058093FA
:10203000DC0378940E940705F301708B6787DF91BA
:10204000CF911F910F91EF90DF90CF90BF90AF9005
:102050008F907F906F905F904F900895219A089590
:102060000F931F93CF93DF93CDB7DEB762970FB671
:10207000F894DEBF0FBECDBF8C01F901DC011C96C8
:102080008C917A8369835C834B835E834D839081DB
:102090009D8791819E8792819F878130F1F4CE0147
:1020A00001960E94610D83E0888B1A8A198AD801F3
:1020B000ED91FC910484F585E02DBE016F5F7F4FAB
:1020C000C801099562960FB6F894DEBF0FBECDBF6A
:1020D000DF91CF911F910F9108951C861B861A8660
:1020E000198618861F82DFCF0F931F93CF93DF933C
:1020F000CDB7DEB762970FB6F894DEBF0FBECDBF87
:102100008C01F901DC011C968C917A8369835C83D4
:102110004B835E834D8390819D8791819E879281C1
:102120009F878130E9F4CE0101960E94610D188AE3
:102130001A8A198AD801ED91FC910484F585E02D65
:10214000BE016F5F7F4FC801099562960FB6F89484
:10215000DEBF0FBECDBFDF91CF911F910F910895CC
:102160001C861B861A86198618861F82E0CF4F921E
:102170005F926F927F928F92AF92BF92CF92DF92D7
:10218000EF920F931F93CF93DF933C01EB010E94DB
:102190000705F30127853089621B730B6A307105CF
:1021A000B0F3F894E881F9817BB170646BB16F7B17
:1021B0006BB9CA848F812C2D281B822F2F83BF845B
:1021C0004A805B801D850C85DE841F5F0F5FD39482
:1021D0009E813885A984EB844181D20120E0C32F00
:1021E000522F322F3181442788943111380F08F44F
:1021F0003FEF8195889410FD430F4795889411FD1A
:10220000430F4795889412FD430F4795889413FD1B
:10221000430F4795889414FD430F4795889415FD07
:10222000430F4795889416FD430F4795889417FDF3
:10223000430F47958894232F1111242F8C0D422F83
:10224000002C7BB900C000C047FF6BB9308122274A
:10225000889400C0002C6BB93111390F00C0002CDC
:102260007BB900C000C046FF6BB908F43FEF919501
:10227000889400C0002C6BB900FD230F00C0002C17
:102280007BB900C000C045FF6BB92795889401FD5C
:10229000230F00C0002C6BB92795889400C0002C38
:1022A0007BB900C000C044FF6BB902FD230F279526
:1022B000889400C0002C6BB903FD230F00C0002CD4
:1022C0007BB900C000C043FF6BB92795889404FD1B
:1022D000230F00C0002C6BB92795889400C0002CF8
:1022E0007BB900C000C042FF6BB905FD230F2795E5
:1022F000889400C0002C6BB906FD230F00C0002C91
:102300007BB900C000C041FF6BB92795889407FDD9
:10231000230F00C0002C6BB92795889400C0002CB7
:102320007BB900C000C040FF6BB9432F0111422FA1
:102330009A0D00C0002C6BB900C000C0002C7BB906
:1023400000C000C047FF6BB932812227889400C0CB
:10235000002C6BB931113C0F00C0002C7BB900C0C0
:1023600000C046FF6BB908F43FEFEB0DF11D00C054
:10237000002C6BB9D0FC230F00C0002C7BB900C02F
:1023800000C045FF6BB927958894D1FC230F00C08E
:10239000002C6BB92795889400C0002C7BB900C035
:1023A00000C044FF6BB9D2FC230F2795889400C06E
:1023B000002C6BB9D3FC230F00C0002C7BB900C0EC
:1023C00000C043FF6BB927958894D4FC230F00C04D
:1023D000002C6BB92795889400C0002C7BB900C0F5
:1023E00000C042FF6BB9D5FC230F2795889400C02D
:1023F000002C6BB9D6FC230F00C0002C7BB900C0A9
:1024000000C041FF6BB927958894D7FC230F00C00B
:10241000002C6BB92795889400C0002C7BB900C0B4
:1024200000C040FF6BB9432FD110422FC19500C0AF
:10243000002C6BB9CE0D00C000C07BB900C000C03D
:1024400047FF6BB931812227889400C0002C6BB9FB
:102450003111380F00C0002C7BB900C000C046FF0E
:102460006BB908F43FEF8195889400C0002C6BB9DC
:1024700010FD230F00C0002C7BB900C000C045FF39
:102480006BB92795889411FD230F00C0002C6BB900
:102490002795889400C0002C7BB900C000C044FF81
:1024A0006BB912FD230F2795889400C0002C6BB9DF
:1024B00013FD230F00C0002C7BB900C000C043FFF8
:1024C0006BB92795889414FD230F00C0002C6BB9BD
:1024D0002795889400C0002C7BB900C000C042FF43
:1024E0006BB915FD230F2795889400C0002C6BB99C
:1024F00016FD230F00C0002C7BB900C000C041FFB7
:102500006BB92795889417FD230F00C0002C6BB979
:102510002795889400C0002C7BB900C000C040FF04
:102520006BB9432F1111422F8C0D00C0002C6BB9D9
:10253000119709F086CE20EE31E0D2010E9451229F
:10254000DC01CB01F4E0B695A79597958795FA95B0
:10255000D1F730E020E0B901EAE94E9E040C611D9C
:102560005E9E600D711D1124650D711D860F971FF4
:10257000A11DB11D893E43E09407A105B10508F4F2
:1025800034C0885E9340A109B10942E0B695A79591
:10259000979587954A95D1F747E0849F080E211DAE
:1025A000949F200D311D1124290F311D6091DC03F2
:1025B00070E0860F971F820F931F4091EC0550919A
:1025C000ED056091EE057091EF05292F3327420F3D
:1025D000531F611D711D4093EC055093ED056093F1
:1025E000EE057093EF058093DC0378940E94070555
:1025F000F301708B6787DF91CF911F910F91EF905F
:10260000DF90CF90BF90AF908F907F906F905F9052
:102610004F900895569A08950F931F93CF93DF9389
:10262000CDB7DEB762970FB6F894DEBF0FBECDBF51
:102630008C01F901DC011C968C917A8369835C839F
:102640004B835E834D8390819D8791819E8792818C
:102650009F878130F1F4CE0101960E949E0D83E0A8
:10266000888B1A8A198AD801ED91FC910484F5852A
:10267000E02DBE016F5F7F4FC801099562960FB6CE
:10268000F894DEBF0FBECDBFDF91CF911F910F91A8
:1026900008951C861B861A86198618861F82DFCF2E
:1026A0000F931F93CF93DF93CDB7DEB762970FB62B
:1026B000F894DEBF0FBECDBF8C01F901DC011C9682
:1026C0008C917A8369835C834B835E834D83908195
:1026D0009D8791819E8792819F878130E9F4CE0109
:1026E00001960E949E0D188A1A8A198AD801ED91C6
:1026F000FC910484F585E02DBE016F5F7F4FC8011A
:10270000099562960FB6F894DEBF0FBECDBFDF917C
:10271000CF911F910F9108951C861B861A861986EA
:1027200018861F82E0CFFB01EE0FFF1FE15AFE4F1C
:10273000BC01808191810E943D040C946A050F9335
:102740001F93CF93DF93EC01062F142F8E858131D9
:1027500020F4882331F0411104C081E00E945E0B17
:102760001E868E85811112C08D8591E09093F405AF
:10277000809316061092F5051092170660E4111169
:1027800001C060E08DE097E00E94020D602F8DE0B7
:1027900097E00E94020D123041F48E858F5F8E8784
:1027A000DF91CF911F910F91089581E00E945E0B00
:1027B0001E86F6CFCF93DF9300D000D000D0CDB7E8
:1027C000DEB7AB011C821D821E82DC01ED91FC9103
:1027D0000190F081E02D19821A821B829E012F5FE9
:1027E0003F4FBE016C5F7F4F099526960FB6F89458
:1027F000DEBF0FBECDBFDF91CF910895FC0181E216
:1028000091E091838083138212828FEF8683878386
:10281000808781878287838781E0848716861586F3
:102820001582148280916A0690916B06892B21F49F
:10283000F0936B06E0936A06A091C003B091C103C8
:10284000109721F01596FC93EE931497F093C10323
:10285000E093C0030895089590E080E00895FC019E
:1028600085859685089590E080E00895CF92DF9267
:10287000EF92FF920F931F93CF93DF93EC0181E0D0
:1028800090E07C0102C0EE0CFF1C6A95E2F76E013D
:1028900080E7C80ED11CD6016C91613208F060E26D
:1028A000FE01E159FF4F80810E948F0A1092E605D8
:1028B0008093E505CD58DF4F88819981DC01ED914A
:1028C000FC910284F385E02D09958C01F60180814D
:1028D000823060F088819981DC01ED91FC91028465
:1028E000F385E02D099520E0022B182B0E211F21E6
:1028F00081E090E00E151F0511F090E080E0DF917F
:10290000CF911F910F91FF90EF90DF90CF9008959E
:102910006F927F928F929F92AF92BF92CF92DF92EF
:10292000EF92FF920F931F93CF93DF9381E08093F9
:1029300085070E945E05009175071091760720912A
:10294000770730917807AB01BC01401B510B620B3C
:10295000730B8091810790918207B0E0A0E084170B
:102960009507A607B70708F0FAC0712C812C912CA7
:102970005401839480918007781608F050C0E72CAA
:10298000F12CE0917D07F0917E07EE0DFF1D40E0F8
:10299000608189E197E00E94900C95018401072CE9
:1029A00004C0000F111F221F331F0A94D2F76801C1
:1029B00000951095612C80917F07681608F5C62D4B
:1029C000D0E0E0917B07F0917C07EC0FFD1F608168
:1029D00089E197E00E9436142496CC0FDD1FC75E74
:1029E000D84F892B41F4888199818C299D2999831D
:1029F00088836394E0CF8881998180239123F7CFE6
:102A000080917D0790917E07E80EF91E41E0F70165
:102A1000608189E197E00E94900C7394ABCF29E12B
:102A2000C22E27E0D22EE6018FEF9FEF2F8D38A127
:102A3000232B21F41C8E9E8F8D8F19A22696F7E0F2
:102A4000C535DF0799F710E096E0B92E80917F0732
:102A5000181708F052C000E0E12EF12CEE0CFF1C1C
:102A6000C7018F5D984F7C0120918007021708F005
:102A700042C0F70160817181002E02C07695679592
:102A80000A94E2F7129F90011124200F311DE9E111
:102A9000F7E080E0458D568D2417350709F463C0B3
:102AA0008F5F36968A30B1F760FF23C0E9E1F7E027
:102AB00090E080E0448D411117C0E0917907F091DA
:102AC0007A07E20FF31F4081B89EF001B99EF00D26
:102AD0001124E75EF84F448F368F258F10A2178E92
:102AE00061E00E94810605C0019636968A30910504
:102AF00009F70F5FB9CF1F5FA9CF10E0F60181A1E1
:102B00008111182FF6E0CF0ED11CCC15DD05B1F7E1
:102B10000E945E0560937507709376078093770730
:102B2000909378071123D9F080913A078823B9F060
:102B30008091380790913907019789F48091350782
:102B4000DF91CF911F910F91FF90EF90DF90CF9089
:102B5000BF90AF909F908F907F906F90089510924C
:102B6000850780E0EDCF6170BCCF0E94FC24FC01A2
:102B700080819181009711F00C94B6230895FB0198
:102B800001900020E9F73197AF01461B570BDC019C
:102B9000ED91FC910280F381E02D09948F929F9238
:102BA000AF92BF92EF92FF920F931F93CF93DF9359
:102BB000CDB7DEB7A1970FB6F894DEBF0FBECDBF7D
:102BC0007C01FA01CB0119A2223008F42AE08E011F
:102BD0000F5D1F4F822E912CB12CA12CBF01A5019E
:102BE00094010E942F22F901CA016A300CF5605D40
:102BF000D8016E938D01232B242B252B79F790E0A0
:102C000080E0109721F0BD01C7010E94BF15A19679
:102C10000FB6F894DEBF0FBECDBFDF91CF911F91ED
:102C20000F91FF90EF90BF90AF909F908F9008957D
:102C3000695CDECF6BEA71E00C94BF15CF93DF9334
:102C4000AB01BC012AE080E796E00E94CE15EC01C2
:102C500080E796E00E941A168C0F9D1FDF91CF919E
:102C60000895CF93DF93482F50E070E060E02AE0B2
:102C700080E796E00E94CE15EC0180E796E00E9486
:102C80001A168C0F9D1FDF91CF910895CF92DF927E
:102C9000EF92FF92CF93DF936115710539F4682F9E
:102CA00080E796E00E948907EC011EC06C01990F35
:102CB000EE08FF086A30710521F52AE0F7FE22C010
:102CC0006DE280E796E00E948907EC0144275527D2
:102CD000BA014C195D096E097F092AE080E796E088
:102CE0000E94CE15C80FD91F80E796E00E941A16E1
:102CF0008C0F9D1FDF91CF91FF90EF90DF90CF90D1
:102D00000895262FB701A60180E796E00E94CE1510
:102D1000CBCF0F931F93CF93DF938C01D0E0C0E014
:102D2000F801EC0FFD1F6491662341F080E796E007
:102D30000E948907892B11F02196F2CF80E796E057
:102D40000E941A168C0F9D1FDF91CF911F910F913A
:102D500008950F931F93CF93DF938C01D0E0C0E0D1
:102D60006115710519F00E94BF15EC01C8010E94A0
:102D70001A168C0F9D1FDF91CF911F910F9108950F
:102D80006115710511F00C94BF1590E080E0089575
:102D90000F931F93CF93DF93EC018B0161E08EE0E3
:102DA0000E949D0480E796E00E941A166EEA71E088
:102DB00080E796E00E94C016B80180E796E00E9486
:102DC0000F0761EB71E080E796E00E94C016BE013C
:102DD00080E796E00E940F0763EB71E080E796E0E2
:102DE0000E94A91662E370E080E090E00E942C054A
:102DF00060E08EE0DF91CF911F910F910C949D04C4
:102E00004F925F926F927F928F929F92AF92BF92FA
:102E1000FF920F931F93CF93DF9300D01F92CDB7F4
:102E2000DEB764EF71E080E090E00E942C058091B5
:102E3000D2039091D303079708F45DC11092D30396
:102E40001092D2030E9481086AEB71E08CE997E04E
:102E50000E94C0166FEC71E080E796E00E94A91610
:102E60000DE211E094ECA92E93E0B92EF8016191E6
:102E700071918F0180E796E00E94C0166AE070E0D1
:102E8000F501819191915F010E944616F1E00B33AB
:102E90001F0761F780E796E00E941A166091C6034B
:102EA0007091C703072E000C880B990B0E94C1205C
:102EB00020E030E04FE753E40E9472224B015C01B6
:102EC0006091CC037091CD03072E000C880B990BF9
:102ED0000E94C120A50194010E94FC200E94EB22C7
:102EE000162F6091CA037091CB03072E000C880B3C
:102EF000990B0E94C120A50194010E94FC200E9410
:102F0000EB22062F6091C8037091C903072E000CB5
:102F1000880B990B0E94C120A50194010E94FC20FE
:102F20002B013C010E94EB22F62EC301B2010E944C
:102F3000EB22862F0E943116C501B4010E94E422C3
:102F400086E695E20E9446166AED71E080E796E01B
:102F50000E94A9168F2D0E943116802F0E943116D3
:102F6000812F0E9431168091C4039091C50302976E
:102F70000CF459C06EEE71E080E796E00E94A9164D
:102F8000F9820A831B8361E070E0CE0101960E9402
:102F90009313F092990700939A0710939B078091DF
:102FA000CE039091CF03092E000CAA0BBB0B80938C
:102FB000080190930901A0930A01B0930B0180913D
:102FC000D0039091D103092E000CAA0BBB0B809368
:102FD0000C0190930D01A0930E01B0930F016EEFC1
:102FE00071E080E796E00E94C016209108013091C0
:102FF000090140910A0150910B01A4E6B0E00E9442
:10300000BA210E941E166FE072E080E796E00E94EF
:10301000C01660910C0170910D0180910E0190918C
:103020000F010E941E168091C4039091C503029760
:1030300009F459C061E272E080E796E00E94A916A7
:10304000F9820A831B8370E060E0CE0101960E9442
:103050009313F09296070093970710939807809127
:10306000CE039091CF03092E000CAA0BBB0B8093CB
:10307000000190930101A0930201B093030180919C
:10308000D0039091D103092E000CAA0BBB0B8093A7
:10309000040190930501A0930601B09307016EEF20
:1030A00071E080E796E00E94C01620910001309107
:1030B00001014091020150910301A4E6B0E00E9499
:1030C000BA210E941E166FE072E080E796E00E942F
:1030D000C0166091040170910501809106019091E4
:1030E00007010E941E1660ED77E080E090E00E94EC
:1030F0002C050E94AE180E9481088FE790E0909303
:10310000A8078093A70762E372E08CE997E00E942A
:10311000A916E091D203F091D303EE0FFF1FE35DF8
:10312000FE4F608171818CE997E00E94A91665E5E8
:1031300072E08CE997E00E94C0160F900F900F90FC
:10314000DF91CF911F910F91FF90BF90AF909F9013
:103150008F907F906F905F904F90089569E572E037
:1031600080E796E00E94A9161092D3031092D20332
:10317000E4ECF3E011821082138212821582148231
:10318000178216821186108613861286158614867B
:103190000C940017EF92FF920F931F93CF93DF933E
:1031A000EC017B01198218821B821A821D821C820B
:1031B000FB0101900020E9F731978F01061B170BE7
:1031C000B8016F5F7F4F90E080E00E943F2400973E
:1031D000B9F0998388831B830A832C813D81232B3B
:1031E00011F4FC0110821D830C83B7018881998141
:1031F000DF91CF911F910F91FF90EF900C940A25D2
:1032000088819981009711F00E94B6231982188253
:103210001D821C821B821A82DF91CF911F910F9118
:10322000FF90EF90089585ED8093BC00809160063B
:1032300090916106A0916206B09163060796A11D68
:10324000B11D23E0B695A795979587952A95D1F757
:103250002091BC0024FD03C010925E0608954091A9
:103260006006509161066091620670916306452B7D
:10327000462B472B69F30097A105B10541F025E3E3
:103280002A95F1F700000197A109B109E1CF8091DA
:103290005F060C946E0A0F931F93CF93DF9300D0B9
:1032A00000D000D0CDB7DEB7182F63E672E080E71C
:1032B00096E00E94C0160E948814682F80E796E06E
:1032C0000E94890780E796E00E941A1680913807CD
:1032D000909139078130910571F0029709F4A6C0E9
:1032E00026960FB6F894DEBF0FBECDBFDF91CF910B
:1032F0001F910F910895133209F44DC01A3209F449
:103300008EC06CE772E080E796E00E94A916E0911B
:10331000C203F091C303EC52FC4F1083612F8CE980
:1033200097E00E949F088091C2039091C303019689
:103330009093C3038093C203FC01EC52FC4F1082B4
:10334000039774F264ED73E0CE0101960E94CA18EF
:1033500089819A81009709F465C00E9483200091B9
:10336000D2031091D303F801EE0FFF1FEC53FC4F73
:1033700071836083CE0101960E94B7151092C3033A
:103380001092C2031092D4030F5F1F4F1093D30308
:103390000093D2033DC064ED73E0CE0101960E941C
:1033A000CA1889819A810097B1F10E948320E09127
:1033B000D203F091D303EE0FFF1FEC53FC4F718348
:1033C0006083CE0101960E94B71560E772E080E746
:1033D00096E00E94C016E091D203F091D303EE0F65
:1033E000FF1FEC53FC4F6AE070E0808191810E94E6
:1033F00046161092D4038091D2039091D303019684
:103400009093D3038093D2031092C3031092C2030C
:103410000E94001765CF60E070E0CB01C8CF10922A
:10342000D403F2CF60E070E0CB0199CF1A3209F0FB
:1034300057CF0E94AE1854CF1F920F920FB60F9223
:1034400011242F933F938F939F93AF93BF938091BA
:10345000EC059091ED05A091EE05B091EF0530914E
:10346000EB0523E0230F2D3758F50196A11DB11D63
:103470002093EB058093EC059093ED05A093EE056A
:10348000B093EF058091F0059091F105A091F205C0
:10349000B091F3050196A11DB11D8093F0059093A5
:1034A000F105A093F205B093F305BF91AF919F9101
:1034B0008F913F912F910F900FBE0F901F901895F5
:1034C00026E8230F0296A11DB11DD2CF1F920F92A5
:1034D0000FB60F9211242F933F934F935F936F93E7
:1034E0007F938F939F93AF93BF93EF93FF9380E767
:1034F00096E00E946707FF91EF91BF91AF919F9176
:103500008F917F916F915F914F913F912F910F908C
:103510000FBE0F901F9018951F920F920FB60F922B
:1035200011242F938F939F93EF93FF93E091800645
:10353000F09181068081E0918606F091870682FDF8
:103540001BC09081809189068F5F8F7320918A06BE
:10355000821741F0E0918906F0E0E059F94F958F2C
:1035600080938906FF91EF919F918F912F910F90FA
:103570000FBE0F901F9018958081F4CF1F920F926D
:103580000FB60F9211242F933F934F935F936F9336
:103590007F938F939F93AF93BF93EF93FF9380910C
:1035A000B900887F803609F44AC0F0F5883209F402
:1035B000A7C018F5803109F49BC0B8F4882309F43A
:1035C000F9C0883009F494C0FF91EF91BF91AF9199
:1035D0009F918F917F916F915F914F913F912F912B
:1035E0000F900FBE0F901F901895883109F488C076
:1035F000803251F780933C0614C0803409F49DC09A
:1036000040F48033B9F38833F9F680933C0685ECB7
:10361000B0C0803509F485C0883509F496C0883477
:1036200099F60E941319D0CF883909F48CC038F567
:10363000883729F050F4883611F0803729F683E076
:1036400080935E061092220457C0883809F47BC02C
:10365000803919F0803809F0B7CF80912204803288
:1036600008F071C0E091220481E08E0F8093220463
:103670008091BB00F0E0EE5FFB4F80833DC0803B5C
:1036800039F0E0F4803A09F479C0883A09F09CCF27
:1036900084E080935E061092010410920004E09191
:1036A0002504F091260409958091000481110FC032
:1036B00081E0809300041092E00309C0803C09F48B
:1036C000A6CF883C09F4A3CF883B09F07DCFE091D9
:1036D000010481E08E0F80930104F0E0E052FC4F82
:1036E00080818093BB00909101048091000429C0E7
:1036F000809139068093BB0085EC8093BC0064CF39
:1037000090913B0680913A06981758F5E0913B0658
:1037100081E08E0F80933B06F0E0E85EF94F8081F8
:10372000E9CFE0913B0681E08E0F80933B068091CC
:10373000BB00F0E0E85EF94F808390913B068091FA
:103740003A069817C8F285E8D8CFE0913B0681E0A9
:103750008E0F80933B068091BB00F0E0E85EF94F4E
:10376000808380913D0681115CCF81E08093380693
:1037700084EA8093BC0010925E0626CF85EC80938D
:10378000BC0010925E0680912204803230F4E091F9
:103790002204F0E0EE5FFB4F10826091220470E0A3
:1037A000E0912304F091240482E094E009951092C2
:1037B00022040ACF10923C0634CF10927306109266
:1037C000720688EE93E0A0E0B0E0809374069093D8
:1037D0007506A0937606B093770627E631E030931E
:1037E00071062093700625EC30E030937D0620931F
:1037F0007C0624EC30E030937F0620937E0620EC9C
:1038000030E0309381062093800621EC30E0309345
:1038100083062093820622EC30E0309385062093C5
:10382000840626EC30E030938706209386061092BB
:10383000890610928A0610928B0610928C061092BE
:10384000100710920F078093110790931207A0930F
:103850001307B093140789E791E090930E078093C4
:103860000D076BE872E083EC97E00E94CA1867E9E5
:1038700072E08DEB97E00E94CA1861EA72E087EB74
:1038800097E00E94CA186FEA72E081EB97E00E940D
:10389000CA1867EB72E08BEA97E00E94CA18109290
:1038A0009F0710929E0781E08093A5071092A807BA
:1038B0001092A70781EA91E090939D0780939C075F
:1038C0000E945E052FEF2093960790EC9093970748
:1038D0008BEC809398072093990790939A07809395
:1038E0009B070E945E0560938E0770938F078093FD
:1038F0009007909391070E945E05609392077093E2
:103900009307809394079093950710921B0710924A
:103910001F0710921E0710922007E5E3F7E01082C0
:10392000148213821582369687E0E137F807B9F7DB
:1039300083E191E090937C0780937B0780E191E0A5
:1039400090937E0780937D0784E080937F0783E0D8
:103950008093800781E991E090937A0780937907BB
:103960008AE090E0909382078093810784EF91E052
:10397000909384078093830710928707109286079D
:1039800010927507109276071092770710927807B9
:10399000109285078BE891E090931A07809319079E
:1039A00088E38093880781E0809389078DE097E022
:1039B00090938D0780938C078FEF8093C9071092A7
:1039C000CB071092CA071092D5071092D4078FEF39
:1039D0009FEFDC018093D0079093D107A093D2078B
:1039E000B093D3070895CF93DF93CDB7DEB72C976D
:1039F0000FB6F894DEBF0FBECDBF789484B5826059
:103A000084BD84B5816084BD85B5826085BD85B582
:103A1000816085BD80916E00816080936E00109200
:103A2000810080918100826080938100809181007B
:103A3000816080938100809180008160809380000C
:103A40008091B10084608093B1008091B00081606A
:103A50008093B00080917A00846080937A00809196
:103A60007A00826080937A0080917A0081608093EE
:103A70007A0080917A00806880937A001092C10069
:103A80001092E6051092E5051092F50510921706C2
:103A90000E94500A80EE96E09093260480932504BD
:103AA00081EE96E09093240480932304E0918006B5
:103AB000F091810682E08083E0917C06F0917D06A2
:103AC0001082E0917E06F0917F0680E18083109263
:103AD0008806E0918406F091850686E08083E09177
:103AE0008206F0918306808180618083E091820666
:103AF000F0918306808188608083E0918206F09156
:103B00008306808180688083E0918206F09183063D
:103B100080818F7D808364E670E080E090E00E9489
:103B20002C0561E08EE00E94CB046BEB72E0CE01CD
:103B300001960E94CA186FEB72E0CE0107960E94B0
:103B4000CA18BE016F5F7F4FCE0107960E94C8164C
:103B5000CE0107960E94B715CE0101960E94B715B7
:103B600063EC77E080E796E00E940F0780E796E03D
:103B70000E941A1667EB77E080E796E00E940F0735
:103B800080E796E00E941A1680E796E00E941A16D7
:103B90008BE892E00E9489168FE792E00E948916D6
:103BA00058E0C52ED12CE12CF12C10E001E000935F
:103BB000F405C09216061092F5051092170681E0E2
:103BC0000E945E0B811127C06CEC72E080E796E0EA
:103BD0000E94C0162AE0B701A60180E796E00E9485
:103BE000CE156CED72E080E796E00E94C01620E1F1
:103BF000B701A60180E796E00E94CE1561EE72E063
:103C000080E796E00E94A9161F5F61E070E080E007
:103C100090E00E942C052FEFC21AD20AE20AF20AA3
:103C200038E7C316D104E104F10409F664EB71E04E
:103C300080E796E00E94A91663EE72E080E796E0C6
:103C40000E94C016412F50E070E060E02AE080E75B
:103C500096E00E94CE156AEE72E080E796E00E9440
:103C6000A91666EF72E080E796E00E94C0161092F7
:103C7000AA078CE38093A9071092A0071092A107CE
:103C8000ECECF7E085919491E82EEEECF7E0F490FF
:103C9000EFECF7E0E491E093A207E0EDF7E0E491C8
:103CA000E093A307E1EDF7E0E491E093A4078C0132
:103CB000802F8E198F1548F4F80164918CE997E0F4
:103CC0000E940B080F5F1F4FF3CF1092A6070E94B0
:103CD00081088CE08093B8008091A307803429F498
:103CE0000E94810881E08093A60788E992E0909382
:103CF000A8078093A7076FEF72E08CE997E00E9416
:103D0000A91662E173E080E796E00E94A91680910F
:103D10003804811111C087E294E00E94FE131092D2
:103D20003704109236048FE391E090932804809337
:103D3000270481E08093380487E294E00E942E10EB
:103D40008FE195E090932A048093290482E490E027
:103D500090933504809334048091CC079091CD07E3
:103D6000A091CE07B091CF07843CF9E09F07A10551
:103D7000B10520F484EC99E0A0E0B0E08093CC079A
:103D80009093CD07A093CE07B093CF0780915104B5
:103D9000811111C080E494E00E94FE13109250043F
:103DA00010924F0481E591E0909341048093400488
:103DB00081E08093510480E494E00E940A1389E535
:103DC00094E0909343048093420482E490E09093C3
:103DD0004E0480934D048091CC079091CD07A09123
:103DE000CE07B091CF07843C29E09207A105B10529
:103DF00020F484EC99E0A0E0B0E08093CC079093AD
:103E0000CD07A093CE07B093CF071FEF1093C9073C
:103E10001F83188719878FEF0E94311689850E94AA
:103E20003116488550E070E060E02AE080E796E0D7
:103E30000E94CE15BE01695F7F4F8FE195E00E9421
:103E40003D0419831A831B83BE016F5F7F4F89E591
:103E500094E00E943D040E946A0564EF71E080E0F6
:103E600090E00E942C0519831A821B82BE016F5FAD
:103E70007F4F8FE195E00E943D040E946A0564EF48
:103E800071E080E090E00E942C05198280E88A832E
:103E90001B8270E060E0CE0101960E9493130E94A5
:103EA0006A0567E572E080E090E00E942C0567E11A
:103EB00073E080E796E00E94C0168BE499E190934E
:103EC00087078093860781E991E090937A07809332
:103ED00079076FEF7FEF89E197E00E944E0C6091C8
:103EE0008907613208F060E2809188070E948F0A9A
:103EF0001092E6058093E50580918C0790918D07DF
:103F0000DC01ED91FC910284F385E02D09959093FD
:103F10008B0780938A07809189078230B8F080915F
:103F20008C0790918D07DC01ED91FC910284F38563
:103F3000E02D099520E0382F80918A0790918B071A
:103F4000822B932B90938B0780938A0784EC99E0C4
:103F5000909384078093830784E190E09093820795
:103F60008093810762E173E080E796E00E94C016CB
:103F70006BEB72E0CE0101960E94CA1862E273E018
:103F8000CE0107960E94CA18BE016F5F7F4FCE0117
:103F900007960E94C816CE0107960E94B715CE015B
:103FA00001960E94B7150E94AE180E9400170E9449
:103FB000881420E0A22E21E0B22E37EEE32E35E069
:103FC000F32E4EE8C42E47E0D42E10E000E0F501B9
:103FD00084819581A681B781892B8A2B8B2B09F44B
:103FE00052C080819181A281B381892B8A2B8B2B36
:103FF00009F449C00E945E05D7018D909C90F6019E
:1040000040805180628073809B01AC012419350986
:104010004609570919012A013801660C771CF3017A
:10402000E80DF91DEE0FFF1FEE0FFF1FE050FF4FD1
:104030002081318142815381A4E6B0E00E94BA21FF
:104040006215730584059505F0F40E945E05D6019E
:104050006D937D938D939C931397181419047CF59D
:10406000F70111821082F301E00FF11FEA56F84FB9
:104070008081898381818A8382818B83B801CE018B
:1040800001960E949313B8E0AB0EB11CE2E0EE0E75
:10409000F11CF4E0CF0ED11C0130110569F420E0D1
:1040A00030E0232B09F483CF0E945307882309F4BF
:1040B0007ECF0E9400007BCF01E010E088CF198204
:1040C0001A821B82B801CE0101960E949313D70178
:1040D0008D919C91119701968D939C93D4CF8BEAEF
:1040E00097E00E94B71581EB97E00E94B71587EB28
:1040F00097E00E94B7158DEB97E00E94B71583EC0F
:1041000097E00C94B7151F93FC0199278827BC01F1
:10411000E89411911032E9F3193010F01E30C8F311
:104120001B3251F01D3249F4689406C00E94AA2047
:10413000610F711D811D911D119110531A30B0F343
:104140003EF490958095709561957F4F8F4F9F4F6E
:104150001F910895592F482F372F262F660F771F4D
:10416000881F991F660F771F881F991F620F731F83
:10417000841F951F660F771F881F991F0895E89465
:1041800009C097FB3EF490958095709561957F4F9F
:104190008F4F9F4F9923A9F0F92F96E9BB2793954D
:1041A000F695879577956795B795F111F8CFFAF45D
:1041B000BB0F11F460FF1BC06F5F7F4F8F4F9F4F8E
:1041C00016C0882311F096E911C0772321F09EE8EC
:1041D000872F762F05C0662371F096E8862F70E052
:1041E00060E02AF09A95660F771F881FDAF7880F2C
:1041F0009695879597F908950E940F210C94802138
:104200000E94722138F00E94792120F0952311F04C
:104210000C9469210C946F2111240C94B4210E94F8
:10422000912170F3959FC1F3950F50E0551F629F48
:10423000F001729FBB27F00DB11D639FAA27F00DFF
:10424000B11DAA1F649F6627B00DA11D661F829F26
:104250002227B00DA11D621F739FB00DA11D621F0B
:10426000839FA00D611D221F749F3327A00D611D28
:10427000231F849F600D211D822F762F6A2F11240A
:104280009F5750409AF0F1F088234AF0EE0FFF1F3D
:10429000BB1F661F771F881F91505040A9F79E3F94
:1042A000510580F00C9469210C94B4215F3FE4F334
:1042B000983ED4F3869577956795B795F795E795EA
:1042C0009F5FC1F7FE2B880F911D9695879597F9F3
:1042D000089597F99F6780E870E060E008959FEF88
:1042E00080EC089500240A9416161706180609068D
:1042F000089500240A94121613061406050608955C
:10430000092E0394000C11F4882352F0BB0F40F4E3
:10431000BF2B11F460FF04C06F5F7F4F8F4F9F4F23
:10432000089557FD9058440F551F59F05F3F71F0A5
:104330004795880F97FB991F61F09F3F79F087950C
:104340000895121613061406551FF2CF4695F1DF95
:1043500008C0161617061806991FF1CF8695710525
:10436000610508940895E894BB2766277727CB0159
:1043700097F908950E94FC21A59F900DB49F900D80
:10438000A49F800D911D112408952F923F924F926A
:104390005F926F927F928F929F92AF92BF92CF92D5
:1043A000DF92EF92FF920F931F93CF93DF93CDB7DE
:1043B000DEB7CA1BDB0B0FB6F894DEBF0FBECDBF56
:1043C00009942A88398848885F846E847D848C8427
:1043D0009B84AA84B984C884DF80EE80FD800C8130
:1043E0001B81AA81B981CE0FD11D0FB6F894DEBF13
:1043F0000FBECDBFED010895A29FB001B39FC001D4
:10440000A39F700D811D1124911DB29F700D811D00
:104410001124911D0895DB018F939F930E94BA216F
:10442000BF91AF91A29F800D911DA39F900DB29F50
:10443000900D1124089597FB072E16F4009407D0D1
:1044400077FD09D00E94582207FC05D03EF49095D4
:1044500081959F4F0895709561957F4F0895A1E2D2
:104460001A2EAA1BBB1BFD010DC0AA1FBB1FEE1FEE
:10447000FF1FA217B307E407F50720F0A21BB30B39
:10448000E40BF50B661F771F881F991F1A9469F7B5
:1044900060957095809590959B01AC01BD01CF0111
:1044A00008950E94FC21B7FF0895821B930B089585
:1044B000AA1BBB1B51E107C0AA1FBB1FA617B7074A
:1044C00010F0A61BB70B881F991F5A95A9F7809566
:1044D0009095BC01CD010895EE0FFF1F0590F4915A
:1044E000E02D09940E9486220C9480210E9479215B
:1044F00058F00E94722140F029F45F3F29F00C949B
:10450000692151110C94B4210C946F210E949121C6
:1045100068F39923B1F3552391F3951B550BBB27F2
:10452000AA2762177307840738F09F5F5F4F220F37
:10453000331F441FAA1FA9F335D00E2E3AF0E0E82E
:1045400032D091505040E695001CCAF72BD0FE2F78
:1045500029D0660F771F881FBB1F2617370748070C
:10456000AB07B0E809F0BB0B802DBF01FF279358C4
:104570005F4F3AF09E3F510578F00C9469210C94FE
:10458000B4215F3FE4F3983ED4F386957795679521
:10459000B795F7959F5FC9F7880F911D96958795F9
:1045A00097F90895E1E0660F771F881FBB1F621718
:1045B00073078407BA0720F0621B730B840BBA0BD6
:1045C000EE1F88F7E09508950E94EB226894B111E0
:1045D0000C94B42108950E94992188F09F5798F077
:1045E000B92F9927B751B0F0E1F0660F771F881FF8
:1045F000991F1AF0BA95C9F714C0B13091F00E9412
:10460000B321B1E008950C94B321672F782F882748
:10461000B85F39F0B93FCCF3869577956795B39538
:10462000D9F73EF490958095709561957F4F8F4FA7
:104630009F4F08950F931F93CF93DF93823091057F
:1046400010F482E090E0E091D807F091D90730E0D3
:1046500020E0B0E0A0E0309799F42115310509F48D
:104660004AC0281B390B24303105D8F58A819B813B
:104670006115710589F1FB0193838283FE0111C0ED
:10468000408151810281138148175907E0F0481792
:10469000590799F4109761F012960C93129713969C
:1046A0001C933296CF01DF91CF911F910F91089506
:1046B0000093D8071093D907F4CF2115310551F095
:1046C0004217530738F0A901DB019A01BD01DF0150
:1046D000F801C1CFEF01F9CF9093D9078093D807A4
:1046E000CDCFFE01E20FF31F819391932250310948
:1046F00039832883D7CF2091D6073091D707232B32
:1047000041F42091190130911A013093D707209379
:10471000D60720911701309118012115310541F478
:104720002DB73EB740911B0150911C01241B350B46
:10473000E091D607F091D707E217F307A0F42E1BFC
:104740003F0B2817390778F0AC014E5F5F4F2417F5
:10475000350748F04E0F5F1F5093D7074093D60799
:10476000819391939FCFF0E0E0E09CCFCF93DF93D4
:104770000097E9F0FC01329713821282A091D807CA
:10478000B091D907ED0130E020E01097A1F420812D
:104790003181820F931F2091D6073091D7072817B8
:1047A000390709F061C0F093D707E093D607DF918E
:1047B000CF910895EA01CE17DF07E8F54A815B81C2
:1047C0009E0141155105B1F7E901FB83EA83499147
:1047D0005991C40FD51FEC17FD0761F480819181B9
:1047E0000296840F951FE9019983888382819381C2
:1047F0009B838A83F0E0E0E012968D919C91139761
:104800000097B9F52D913C911197CD010296820F39
:10481000931F2091D6073091D7072817390739F60B
:10482000309751F51092D9071092D807B093D70757
:10483000A093D607BCCFD383C28340815181840F1C
:10484000951FC817D90761F44E5F5F4F8881998122
:10485000480F591F518340838A819B8193838283B0
:104860002115310509F0B0CFF093D907E093D807AF
:104870009ECFFD01DC01C0CF13821282D7CFB0E002
:10488000A0E0E5E4F4E20C94C7218C01009751F418
:10489000CB010E941A238C01C801CDB7DEB7E0E13D
:1048A0000C94E321FC01E60FF71F9C012250310913
:1048B000E217F30708F49DC0D901CD91DC9111975F
:1048C000C617D70798F0C530D10530F3CE0104974D
:1048D0008617970708F3C61BD70B2297C193D1936E
:1048E0006D937C93CF010E94B623D6CF5B01AC1AA7
:1048F000BD0A4C018C0E9D1EA091D807B091D9071E
:10490000512C412CF12CE12C109731F58091D607D8
:104910009091D7078815990509F05CC0461657068F
:1049200008F058C08091170190911801009741F448
:104930008DB79EB740911B0150911C01841B950BB4
:10494000E817F90708F055C0F093D707E093D607AA
:10495000F90171836083A0CF8D919C91119712967C
:104960006C90129713967C901397A815B90559F57A
:104970006C0142E0C40ED11CCA14DB0420F1AC016E
:104980004A195B09DA011296159780F062827382E8
:1049900051834083D9016D937C93E114F10471F04C
:1049A000D7011396FC93EE93129776CF22968C0F35
:1049B0009D1FF90191838083F301EFCFF093D90715
:1049C000E093D80769CF4816590608F42C017D01F9
:1049D000D3019ACFCB010E941A237C01009749F0A2
:1049E000AE01B8010E940125C8010E94B6238701CB
:1049F00053CF10E000E050CF81E090E0F8940C94A9
:104A00001125FB01DC0102C001900D924150504084
:104A1000D8F70895FB01DC0101900D920020E1F729
:104A2000089514E0C2E1D4E004C0FE010E946C22AB
:0C4A30002196C331D107C9F7F894FFCFDD
:104A3C000100000000000000010000000000000068
:104A4C00020004010605030000DA078000000000E4
:104A5C0000B515B515B515DA132F143314310359E8
:104A6C00037403790380038603A20300000000741F
:104A7C001030102E10DA132F14DD06DB0D000000A1
:104A8C000050130C130A13DA132F14DD06B7101F82
:104A9C00055904000000008907E2061607D60747EF
:104AAC00072507390700000000020DD50C2C14ABAC
:104ABC000CCE0CBB0CAC0C000000007304900C363C
:104ACC00143132333435363738392A30230000006C
:104ADC00009F08E2062C142B149F130D0A00214290
:104AEC00722C002C446F6E652E000A0A20202020A8
:104AFC004170706C79696E6720696E7075740069AD
:104B0C006E70757473206172650066696E616C20DD
:104B1C00636C7220697320696E2072676200736522
:104B2C007474696E67203556204C65647300706F21
:104B3C00776572206F6E20706572696F64200070EB
:104B4C006F776572206F666620706572696F64207E
:104B5C000073657474696E6720313256204C65643D
:104B6C00730023203D436F6E6669726D20202A20EE
:104B7C003D6261636B0A20686F6C64202A203D5291
:104B8C006573657400202020006D656E7572657309
:104B9C006574006B6579706164206576656E740070
:104BAC00696E707574732069733A20006465666170
:104BBC00756C7420616374696F6E0048465F4C4578
:104BCC00445F5445535400392E31312E323032313A
:104BDC000076657273696F6E20312E30535400422B
:104BEC0072434F4C4F5200484944005359530021D3
:104BFC00536574757020426567696E00466F756EFB
:104C0C006420616464726573733A200020283078E4
:104C1C00002900466F756E64200020646576696318
:104C2C00652873292E004F6C6564202E2E2E000AE9
:104C3C000A202020626F6F74696E672E2E2E2E2034
:104C4C000A00646F6E65004B6579706164202E2ECE
:104C5C002E00536574757020436F6D706C657465B0
:104C6C00004C65642073656C656374696F6E0A2013
:104C7C00313A203132562C20323A2035562C0A202B
:104C8C00333A20426F74680A004272696768746E26
:104C9C006573730A2066726F6D203020746F20323A
:104CAC0035350A005265640A00477265656E0A0064
:104CBC00426C75650A0054696D65206F6E206475D1
:104CCC00726174696F6E0A20696E203130306D73B9
:104CDC000A0054696D65206F666620647572617494
:104CEC00696F6E0A20696E203130306D730A0000D6
:00000001FF
