:100000000C9493000C94BB000C94BB000C940A0657
:100010000C94E5050C94C0050C94BB000C94BB003B
:100020000C94BB000C94BB000C94BB000C94BB0064
:100030000C94BB000C94BB000C94BB000C94BB0054
:100040000C944E070C94BB000C94BE070C949807BC
:100050000C94BB000C94BB000C94BB000C94BB0034
:100060000C942F060C94BB002B2D2D2D2D2D2D2DFA
:100070002D2D2D2D2D2D2D2D2D2D2D2D2D2B007C90
:1000800020202020456C656374726F736361706516
:10009000202020207C002B2D2D2D2D2D2D2D2D2DA4
:1000A0002D2D2D2D2D2D2D2D2D2D2D2B002073752E
:1000B000636365737366756C0A000A4C4544206976
:1000C0006E6974202E2E2E000000000024002700F0
:1000D0002A0000000000250028002B00040404046E
:1000E00004040404020202020202030303030303E2
:1000F00001020408102040800102040810200102BF
:10010000040810200000000800020100000304079A
:100110000000000000000000000000002300260096
:100120002900F007450A11241FBECFEFD8E0DEBF3B
:10013000CDBF23E0A4E9B1E001C01D92A735B2070D
:10014000E1F711E0A0E0B1E0E6E5F9E102C00590D9
:100150000D92A439B107D9F710E0C2E9D0E004C08C
:100160002197FE010E94A60AC139D107C9F70E9452
:1001700073080C949E0C0C94000090E0FC01EE0FB0
:10018000FF1FE45EFE4FA591B4912C91FC01EB5949
:10019000FD4F30812083880F991FFC01E25FFE4FE5
:1001A0000190F081E02D808108952091E901260FD2
:1001B0003327331F21323105ECF420910F02FC016B
:1001C00090E080E0243069F082E00895A091E90198
:1001D0002191AC0149535E4FA40FB52FB11D2C9353
:1001E0000196861798F38091E901680F6093E90101
:1001F00080E0089581E00895089508950895E091BC
:10020000BE018091BD01E81730F4F0E0E356FE4FE7
:10021000808190E008958FEF9FEF08959091BE0147
:100220008091BD012FEF3FEF981748F4E92FF0E0E0
:10023000E356FE4F208130E09F5F9093BE01C901DD
:1002400008958091BD019091BE01891B990B08957D
:10025000CF93DF93CB01EA01642F0E94D500CE013A
:10026000DF91CF910895CF93DF931F92CDB7DEB783
:10027000698361E0CE0101960E94D50081E090E0A3
:100280000F90DF91CF91089590E0FC01EC5FFE4F5D
:100290002491FC01E051FF4F3491FC01E452FF4FE7
:1002A000E491EE23C9F0222339F0233001F1A8F4C0
:1002B000213019F1223029F1F0E0EE0FFF1FEE524C
:1002C000FF4FA591B4918FB7F894EC91611126C0BE
:1002D00030953E233C938FBF08952730A9F02830F6
:1002E000C9F0243049F7809180008F7D03C0809150
:1002F00080008F7780938000DFCF84B58F7784BDB7
:10030000DBCF84B58F7DFBCF8091B0008F7780935A
:10031000B000D2CF8091B0008F7DF9CF3E2BDACFE5
:1003200010920F0281E0809311021092100261E09E
:1003300082E10E94440161E083E10E944401E9EB13
:10034000F0E080818E7F808380818D7F808388E450
:100350008093B80085E48093BC000895CF93DF9329
:1003600090E0FC01E051FF4F249184529F4FFC012B
:1003700084918823D1F090E0880F991FFC01E85305
:10038000FF4FA591B491FC01EE52FF4FC591D4915E
:1003900061110EC09FB7F8948C91E22FE0958E23E7
:1003A0008C932881E223E8839FBFDF91CF9108954A
:1003B0008FB7F894EC91E22BEC938FBFF6CF3FB759
:1003C000F8948091990190919A01A0919B01B0912C
:1003D0009C0126B5A89B05C02F3F19F00196A11DD1
:1003E000B11D3FBFBA2FA92F982F8827BC01CD017F
:1003F000620F711D811D911D42E0660F771F881FDE
:10040000991F4A95D1F708958F929F92AF92BF920C
:10041000CF92DF92EF92FF924B015C010E94DF01CD
:100420006B017C010E94DF016C197D098E099F0917
:10043000683E734081059105A8F321E0821A910876
:10044000A108B10888EEC80E83E0D81EE11CF11C9B
:1004500081149104A104B10429F7FF90EF90DF907B
:10046000CF90BF90AF909F908F900895AF92BF9222
:10047000CF92DF92EF92FF920F931F93CF93DF9370
:100480006C017B018B01040F151FEB015E01AE189F
:10049000BF08C017D10759F06991D601ED91FC91C1
:1004A0000190F081E02DC6010995892B79F7C501EE
:1004B000DF91CF911F910F91FF90EF90DF90CF9040
:1004C000BF90AF90089590E080E00895FC01538DB7
:1004D000448D252F30E0842F90E0821B930B54171E
:1004E00010F0CF96089501970895FC01918D828DAB
:1004F000981761F0A28DAE0FBF2FB11D5D968C9144
:10050000928D9F5F9F73928F90E008958FEF9FEF82
:100510000895FC01918D828D981731F0828DE80F3E
:10052000F11D858D90E008958FEF9FEF0895FC01F8
:10053000918D228D892F90E0805C9F4F821B9109C5
:100540008F739927089584E792E00E94970221E033
:10055000892B09F420E0822F089580E090E0892B18
:1005600029F00E94A30281110C9400000895FC015F
:10057000A48DA80FB92FB11DA35ABF4F2C91848D04
:1005800090E001968F739927848FA689B7892C9361
:10059000A089B1898C91837080648C93938D848DB4
:1005A000981306C00288F389E02D80818F7D8083B7
:1005B0000895EF92FF920F931F93CF93DF93EC0177
:1005C00081E0888F9B8D8C8D98131AC0E889F989FA
:1005D000808185FF15C09FB7F894EE89FF896083FD
:1005E000E889F98980818370806480839FBF81E07E
:1005F00090E0DF91CF911F910F91FF90EF900895C0
:10060000F62E0B8D10E00F5F1F4F0F731127E02E9A
:100610008C8D8E110CC00FB607FCFACFE889F989D2
:10062000808185FFF5CFCE010E94B702F1CFEB8D1F
:10063000EC0FFD2FF11DE35AFF4FF0829FB7F894A6
:100640000B8FEA89FB8980818062CFCF0F931F9344
:10065000CF93DF938C01D0E0C0E0F801EC0FFD1FD9
:100660006491662341F084E792E00E94D902892BCD
:1006700011F02196F2CFCE01DF91CF911F910F9112
:100680000895CF93DF93EC01888D8823B9F0AA8970
:10069000BB89E889F9898C9185FD03C0808186FD3D
:1006A0000DC00FB607FCF7CF8C9185FFF2CF80818C
:1006B00085FFEDCFCE010E94B702E9CFDF91CF9148
:1006C00008953F924F925F926F927F928F929F9286
:1006D000AF92BF92CF92DF92EF92FF920F931F9350
:1006E000CF93DF93CDB7DEB729970FB6F894DEBF6F
:1006F0000FBECDBF8C01B42E842F952FDB01A62E0B
:10070000952E8B2F9927AA27BB27382E7C01D12C19
:10071000C12C38E0832ED80112968D919C911397AD
:10072000C816D90608F00FC13B2D18962C91492DFB
:100730005A2D222361F0A29EC0011124592F299D18
:10074000C0011124492F2B9DC0011124392FD8013C
:100750001E96EC911E9719968D919C911A971B9657
:100760006C91E613A0C0B601660F771F6C0D7D1D5E
:10077000860F971FD8011B96EC911B97E80FF92F56
:10078000F11D50831C96EC911C97E80FF92FF11D79
:1007900040831D962C911D97820F911DFC01308383
:1007A00019968D919C91892B09F479C0D8011F96D7
:1007B0004D905D906D907C9052970E94DF01641582
:1007C00075058605970538F40E94DF01F8016787F3
:1007D000708B818B928B0E94DF01D8011F964D9008
:1007E0005D906D907C905297641975098609970900
:1007F0006C32714081059105C8F2F894F80184814A
:1008000095819A8389830184F285E02D3F012FEF42
:10081000621A720A80818987D8019C915396ED9162
:10082000FC91549755968C91992309F452C090816C
:10083000982B98879081809589238F838F818C83D3
:100840008B8258856F8149853B812C8189819A8172
:10085000D301508347FD252F3A952083262F39F069
:10086000441F00C000006083000000C0F2CF38E0E9
:100870004D9160830000019761F7D8015496FC9375
:10088000EE93539749873B832C839A83898378948B
:100890000E94DF01F8016787708B818B928BFFEFDD
:1008A000CF1ADF0A38CFB601660F771F660F771FA2
:1008B000860F971F222359F02E9DB0012F9D700D9A
:1008C0001124272FE80FF92FF11D208353CF232D5B
:1008D000F9CF9081982B98879081809589238F8379
:1008E0008F818E838D8258856F8149853D812E81D0
:1008F00089819A81D301508347FD252F00C000C014
:10090000208300C000C000C000C000C060830000A1
:10091000262F3A9541F0441F000000C000C000C0DF
:1009200000C000C0E8CF38E04D9100C0608300C037
:10093000019709F7D8015496FC93EE935397498792
:100940003D832E83A2CF6AE070E080E090E029969C
:100950000FB6F894DEBF0FBECDBFDF91CF911F91D0
:100960000F91FF90EF90DF90CF90BF90AF909F904E
:100970008F907F906F905F904F903F900C94040207
:10098000FC0101900020E9F73197AF01481B590B9A
:10099000BC0184E792E00C943602CF93DF930E946F
:1009A0002603EC0188E391E00E94C0048C0F9D1F98
:1009B000DF91CF9108950F931F93CF93DF93EC01B5
:1009C0008B0161E08EE00E94440188E391E00E9487
:1009D000C0048BE391E00E94C004F801448155817A
:1009E0006081718184E792E00E9436028EE391E09B
:1009F0000E94C0044C815D816881798184E792E026
:100A00000E94360280E491E00E94C00488E391E0F5
:100A10000E94C00462E370E080E090E00E94040263
:100A200060E08EE0DF91CF911F910F910C94440113
:100A3000CF93DF9385ED8093BC008091C3019091AB
:100A4000C401A091C501B091C6010796A11DB11DB9
:100A500023E0B695A795979587952A95D1F720918C
:100A6000BC0024FD03C010920F0236C04091C301A8
:100A70005091C4016091C5017091C601452B462B70
:100A8000472B69F30097A105B10541F025E32A95AD
:100A9000F1F700000197A109B109E1CF8091C201EE
:100AA00091E09093C1018823B9F0C091B800D09132
:100AB000BA008091BC008A7B8093BC0060E082E138
:100AC0000E94440160E083E10E9444010E94900181
:100AD000D093BA00C093B800DF91CF910895FC0184
:100AE00080819181009711F00C94480B0895EF924A
:100AF000FF920F931F93CF93DF93EC017B01198239
:100B000018821B821A821D821C82FB010190002028
:100B1000E9F731978F01061B170BB8016F5F7F4F05
:100B200090E080E00E94D10B0097B9F09983888310
:100B30001B830A832C813D81232B11F4FC0110823D
:100B40001D830C83B70188819981DF91CF911F911B
:100B50000F91FF90EF900C94970C888199810097EA
:100B600011F00E94480B198218821D821C821B8280
:100B70001A82DF91CF911F910F91FF90EF9008950E
:100B80001F920F920FB60F9211242F933F934F9302
:100B90005F936F937F938F939F93AF93BF93EF93E5
:100BA000FF9382E00E94BD00FF91EF91BF91AF9152
:100BB0009F918F917F916F915F914F913F912F9175
:100BC0000F900FBE0F901F9018951F920F920FB6A7
:100BD0000F9211242F933F934F935F936F937F93C3
:100BE0008F939F93AF93BF93EF93FF9381E00E9406
:100BF000BD00FF91EF91BF91AF919F918F917F9138
:100C00006F915F914F913F912F910F900FBE0F9079
:100C10001F9018951F920F920FB60F9211242F93C9
:100C20003F934F935F936F937F938F939F93AF9374
:100C3000BF93EF93FF9380E00E94BD00FF91EF917F
:100C4000BF91AF919F918F917F916F915F914F91E4
:100C50003F912F910F900FBE0F901F9018951F92EC
:100C60000F920FB60F9211242F933F934F935F93E0
:100C70006F937F938F939F93AF93BF93EF93FF9364
:100C80008091B900887F803609F44AC0F0F5883237
:100C900009F4A7C018F5803109F49BC0B8F4882383
:100CA00009F4F9C0883009F494C0FF91EF91BF9125
:100CB000AF919F918F917F916F915F914F913F91F4
:100CC0002F910F900FBE0F901F901895883109F447
:100CD00088C0803251F780930E0214C0803409F42A
:100CE0009DC040F48033B9F38833F9F680930E0247
:100CF00085ECB0C0803509F485C0883509F496C00C
:100D0000883499F60E941805D0CF883909F48CC030
:100D100038F5883729F050F4883611F0803729F6F5
:100D200083E080930F0210920D0257C0883809F4B7
:100D30007BC0803919F0803809F0B7CF80910D025F
:100D4000803208F071C0E0910D0281E08E0F809337
:100D50000D028091BB00F0E0E351FE4F80833DC067
:100D6000803B39F0E0F4803A09F479C0883A09F020
:100D70009CCF84E080930F021092EA011092E90167
:100D8000E091E701F091E80109958091E901811175
:100D90000FC081E08093E9011092C70109C0803C37
:100DA00009F4A6CF883C09F4A3CF883B09F07DCF96
:100DB000E091EA0181E08E0F8093EA01F0E0E953CF
:100DC000FE4F80818093BB009091EA018091E90100
:100DD00029C0809134028093BB0085EC8093BC00D5
:100DE00064CF9091330280913202981758F5E091C8
:100DF000330281E08E0F80933302F0E0EE5EFD4F10
:100E00008081E9CFE091330281E08E0F809333023D
:100E10008091BB00F0E0EE5EFD4F80839091330245
:100E2000809132029817C8F285E8D8CFE09133025A
:100E300081E08E0F809333028091BB00F0E0EE5E84
:100E4000FD4F80838091110281115CCF81E08093FE
:100E5000100284EA8093BC0010920F0226CF85EC2A
:100E60008093BC0010920F0280910D02803230F40A
:100E7000E0910D02F0E0E351FE4F108260910D020F
:100E800070E0E091EB01F091EC018DEE91E00995BD
:100E900010920D020ACF10920E0234CF1F920F92C1
:100EA0000FB60F9211242F933F938F939F93AF937D
:100EB000BF938091950190919601A0919701B09177
:100EC00098013091940123E0230F2D3758F50196B6
:100ED000A11DB11D209394018093950190939601DB
:100EE000A0939701B09398018091990190919A01F4
:100EF000A0919B01B0919C010196A11DB11D809311
:100F0000990190939A01A0939B01B0939C01BF918A
:100F1000AF919F918F913F912F910F900FBE0F90A6
:100F20001F90189526E8230F0296A11DB11DD2CF60
:100F30001F920F920FB60F9211242F933F934F934E
:100F40005F936F937F938F939F93AF93BF93EF9331
:100F5000FF9384E792E00E94B702FF91EF91BF9167
:100F6000AF919F918F917F916F915F914F913F9141
:100F70002F910F900FBE0F901F9018951F920F92F8
:100F80000FB60F9211242F938F939F93EF93FF939C
:100F9000E0918402F09185028081E0918A02F091D3
:100FA0008B0282FD1BC0908180918D028F5F8F73B9
:100FB00020918E02821741F0E0918D02F0E0EC5812
:100FC000FD4F958F80938D02FF91EF919F918F91AF
:100FD0002F910F900FBE0F901F9018958081F4CF26
:100FE000E8E6F2E01382128288EE93E0A0E0B0E03F
:100FF00084839583A683B78328E131E031832083FE
:10100000E4E7F2E01382128284839583A683B78398
:101010008AE291E09183808385EC90E095878487D4
:1010200084EC90E09787868780EC90E0918B808BB2
:1010300081EC90E0938B828B82EC90E0958B848B9B
:1010400086EC90E0978B868B118E128E138E148E09
:1010500067E471E08DE493E00E94770562E571E05A
:1010600087E493E00E94770568E571E081E493E00E
:101070000E947705E5E1F3E081E08083118213822D
:101080001282158214822FEF3FEF3783268310865A
:10109000128611868387148692E095878687178645
:1010A000108A118A128A868B178A118E108E138EDF
:1010B000128E358F248F168E10A2178E81A312A246
:1010C00093A384A315A216A217A210A680E09FEFF7
:1010D000A0E0B0E08093110390931203A093130358
:1010E000B09314030895CF93DF93CDB7DEB72C9759
:1010F0000FB6F894DEBF0FBECDBF789484B5826082
:1011000084BD84B5816084BD85B5826085BD85B5AB
:10111000816085BD80916E00816080936E00109229
:1011200081008091810082608093810080918100A4
:101130008160809381008091800081608093800035
:101140008091B10084608093B1008091B000816093
:101150008093B00080917A00846080937A008091BF
:101160007A00826080937A0080917A008160809317
:101170007A0080917A00806880937A001092C10092
:101180001092BE011092BD011092C0011092BF01D9
:101190000E9490018CEF90E09093E8018093E7012A
:1011A0008DEF90E09093EC018093EB0188E48093C5
:1011B000B800E0918402F091850282E08083E091A2
:1011C0008002F09181021082E0918202F09183020C
:1011D00080E1808310928C02E0918802F091890274
:1011E00086E08083E0918602F091870280818061B1
:1011F0008083E0918602F0918702808188608083FD
:10120000E0918602F0918702808180688083E0917E
:101210008602F091870280818F7D808364E670E092
:1012200080E090E00E94040261E08EE00E94AE0146
:1012300086E990E00E94CD048FE790E00E94CD0403
:1012400088E690E00E94CD0464E170E080E090E0E8
:101250000E94040268E671E0CE0101960E947705C3
:101260006CE671E0CE0107960E947705BE016F5FC4
:101270007F4FCE0107960E94DB04CE0107960E94A5
:101280006F05CE0101960E946F0568E671E0CE0100
:1012900001960E9477056AE771E0CE0107960E94E9
:1012A0007705BE016F5F7F4FCE0107960E94DB047A
:1012B000CE0107960E946F05CE0101960E946F0530
:1012C00068E671E0CE0101960E94770566E871E05C
:1012D000CE0107960E947705BE016F5F7F4FCE015A
:1012E00007960E94DB04CE0107960E946F05CE018F
:1012F00001960E946F058AEB90E00E94260350E061
:10130000652E51E0752E64E0462E61E0562E72E0A7
:10131000872E912C33243394E2E02E2ED301ED90CE
:10132000FD903D01F201A190B1902F016501CC0C1F
:10133000DD1CCA0CDB1CC6010E94AC0A009721F41C
:10134000D12CC12CB12CA12CF701E452FF4FE49118
:10135000F0E0EE0FFF1FEE52FF4F25913491F701A1
:10136000E051FF4FE4916AEEA40164038001659FA0
:10137000100D11240B5E1C4FD8019C963C929C973B
:101380009D961C929D979F96BC92AE929E97D196E9
:10139000DC92CE92D097D396FC92EE92D297D496CE
:1013A0001C92D497D6969C938E93D597D7963C92C1
:1013B000D797D8962C92D897D9961C92D997DA9627
:1013C0003C92DA97DB961D921D921D921C92DE973D
:1013D000DF9611963C932E931296EC930E94480B45
:1013E000F7FC04C060E08E2D0E94AE01F80182A9D6
:1013F00093A997FD09C061E00E94AE0160E0D801A9
:10140000D2968C910E944401F80135A640E050E04C
:10141000BA0185E193E00E94610340E050E0BA0127
:101420008BE293E00E9461038A94892851F562E37C
:1014300070E080E090E00E9404028DEA90E00E945B
:10144000260300E010E0C0901103D0901203E0905A
:101450001303F0901403B701A60185E193E00E9405
:101460006103B701A6018BE293E00E9461030115BD
:10147000110549F30E94A302882329F30E9400006A
:10148000E2CF88248394912C49CF809134039091AA
:1014900035030E94480B809131039091320397FDF0
:1014A00003C060E00E94AE0180911E0390911F0373
:1014B0000E94480B80911B0390911C0397FD03C071
:1014C00060E00E94AE0181E493E00E946F0587E432
:1014D00093E00E946F058DE493E00C946F052F92CA
:1014E0003F924F925F926F927F928F929F92AF92B4
:1014F000BF92CF92DF92EF92FF920F931F93CF9301
:10150000DF93CDB7DEB7CA1BDB0B0FB6F894DEBF97
:101510000FBECDBF09942A88398848885F846E84BD
:101520007D848C849B84AA84B984C884DF80EE8007
:10153000FD800C811B81AA81B981CE0FD11D0FB610
:10154000F894DEBF0FBECDBFED010895EE0FFF1F73
:101550000590F491E02D09940F931F93CF93DF939F
:101560008230910510F482E090E0E0915503F09113
:10157000560330E020E0B0E0A0E0309799F4211568
:10158000310509F44AC0281B390B24303105D8F540
:101590008A819B816115710589F1FB0193838283A7
:1015A000FE0111C040815181028113814817590702
:1015B000E0F04817590799F4109761F012960C93D0
:1015C000129713961C933296CF01DF91CF911F9102
:1015D0000F9108950093550310935603F4CF2115EE
:1015E000310551F04217530738F0A901DB019A0188
:1015F000BD01DF01F801C1CFEF01F9CF9093560390
:1016000080935503CDCFFE01E20FF31F8193919399
:101610002250310939832883D7CF20915303309149
:101620005403232B41F420910A0130910B01309394
:10163000540320935303209108013091090121158F
:10164000310541F42DB73EB740910C0150910D0189
:10165000241B350BE0915303F0915403E217F30779
:10166000A0F42E1B3F0B2817390778F0AC014E5F12
:101670005F4F2417350748F04E0F5F1F50935403F8
:1016800040935303819391939FCFF0E0E0E09CCF90
:10169000CF93DF930097E9F0FC0132971382128217
:1016A000A0915503B0915603ED0130E020E0109772
:1016B000A1F420813181820F931F20915303309137
:1016C00054032817390709F061C0F0935403E093DD
:1016D0005303DF91CF910895EA01CE17DF07E8F5B4
:1016E0004A815B819E0141155105B1F7E901FB83F8
:1016F000EA8349915991C40FD51FEC17FD0761F496
:10170000808191810296840F951FE90199838883D6
:10171000828193819B838A83F0E0E0E012968D9131
:101720009C9113970097B9F52D913C911197CD019C
:101730000296820F931F2091530330915403281770
:10174000390739F6309751F5109256031092550328
:10175000B0935403A0935303BCCFD383C28340817F
:101760005181840F951FC817D90761F44E5F5F4FF1
:1017700088819981480F591F518340838A819B81B9
:10178000938382832115310509F0B0CFF09356037E
:10179000E09355039ECFFD01DC01C0CF138212827E
:1017A000D7CFB0E0A0E0E7EDFBE00C94710A8C012C
:1017B000009751F4CB010E94AC0A8C01C801CDB74F
:1017C000DEB7E0E10C948D0AFC01E60FF71F9C01E7
:1017D00022503109E217F30708F49DC0D901CD91D9
:1017E000DC911197C617D70798F0C530D10530F3B3
:1017F000CE0104978617970708F3C61BD70B2297CD
:10180000C193D1936D937C93CF010E94480BD6CFA7
:101810005B01AC1ABD0A4C018C0E9D1EA0915503B4
:10182000B0915603512C412CF12CE12C109731F53D
:1018300080915303909154038815990509F05CC079
:101840004616570608F058C080910801909109018A
:10185000009741F48DB79EB740910C0150910D0156
:10186000841B950BE817F90708F055C0F093540353
:10187000E0935303F90171836083A0CF8D919C9114
:10188000119712966C90129713967C901397A81547
:10189000B90559F56C0142E0C40ED11CCA14DB0431
:1018A00020F1AC014A195B09DA011296159780F014
:1018B0006282738251834083D9016D937C93E114DA
:1018C000F10471F0D7011396FC93EE93129776CF43
:1018D00022968C0F9D1FF90191838083F301EFCF36
:1018E000F0935603E093550369CF4816590608F460
:1018F0002C017D01D3019ACFCB010E94AC0A7C015F
:10190000009749F0AE01B8010E948E0CC8010E94F8
:10191000480B870153CF10E000E050CFFB01DC0102
:1019200002C001900D9241505040D8F70895FB013C
:10193000DC0101900D920020E1F7089510E0C2E96A
:10194000D0E004C0FE010E94A60A2196C339D10747
:06195000C9F7F894FFCF77
:1019560009000600460000000000570380006B00E7
:101966006C006D0000000000330128016302FE00D8
:1019760021010E01FF0000000000D90236026602B6
:1019860041039702750289020D0A002142722C005A
:101996002C446F6E652E0031332E30342E323032A9
:1019A6003200302E302E3100454E545F53545F4284
:1019B6005245414B4F5554005359530021686561B8
:1019C6006465725F626567696E002168656164655A
:1019D600725F656E64002173657475705F6265671A
:0419E600696E000026
:00000001FF
