:100000000C94F1000C9419010C9419010C944E06F7
:100010000C9429060C9404060C9419010C941901F3
:100020000C9419010C9419010C9419010C941901E8
:100030000C9419010C9419010C9419010C941901D8
:100040000C94900D0C9419010C94F3030C94CD03B3
:100050000C9419010C9419010C9419010C941901B8
:100060000C9473060C9419012B2D2D2D2D2D2D2D57
:100070002D2D2D2D2D2D2D2D2D2D2D2D2D2D2D2DB0
:100080002D2D2D2D2D2D2D2D2D2D2D2D2B007C208D
:100090002020205465616D45736361706520484878
:1000A000265320454E47494E454552494E4720204C
:1000B00020207C002B2D2D2D2D2D2D2D2D2D2D2D6A
:1000C0002D2D2D2D2D2D2D2D2D2D2D2D2D2D2D2D60
:1000D0002D2D2D2D2D2D2D2D2B0020646576696362
:1000E000652873292E00466F756E642000202D3E12
:1000F00020536572766F2D4932432D426F617264D1
:1001000000202D3E2052656C617900202D3E204458
:100110006973706C617900202D3E20496E70757492
:100120002D4932432D626F61726400202D3E204CB8
:1001300043442D4932432D426F61726400202D3EAD
:10014000204C43440029002028307800466F756E0B
:100150006420616464726573733A20005363616E56
:100160006E696E672E2E2E00493243207363616ED6
:100170006E65723A0052657374617274696E6720BD
:10018000696E00010204081020408001020408107A
:100190002001020408102000000000250028002B88
:1001A0000004040404040404040202020202020320
:1001B000030303030300000000240027002A0000BB
:1001C00000000023002600290000000008000201B2
:1001D00000000304070000000000000000007D1480
:1001E000EE1311241FBECFEFD8E0DEBFCDBF27E056
:1001F000A2E0B4E001C01D92AD32B207E1F714E015
:10020000A0E0B1E0E8E6FFE202C005900D92A23066
:10021000B107D9F710E0C0EFD0E004C02197FE018C
:100220000E948E15CF3ED107C9F70E94DA0D0C94BB
:10023000A7170C940000CF92DF92EF92FF920F93DA
:100240001F93CF93DF936C017A018B01C0E0D0E064
:10025000CE15DF0581F0D8016D918D01D601ED91AC
:10026000FC910190F081E02DC6010995892B11F0D8
:100270002196EECF7E01C701DF91CF911F910F91A3
:10028000FF90EF90DF90CF900895FC01538D448D47
:10029000252F30E0842F90E0821B930B541710F031
:1002A000CF96089501970895FC01918D828D98173E
:1002B00061F0828DDF01A80FB11D5D968C91928D4A
:1002C0009F5F9F73928F90E008958FEF9FEF089547
:1002D000FC01918D828D981731F0828DE80FF11D10
:1002E000858D90E008958FEF9FEF0895FC01918D2B
:1002F000228D892F90E0805C9F4F821B91098F7324
:100300009927089584E395E00E94760121E0892BE6
:1003100009F420E0822F0895FC01848DDF01A80FED
:10032000B11DA35ABF4F2C91848D90E001968F731D
:100330009927848FA689B7892C93A089B1898C913C
:10034000837080648C93938D848D981306C002888B
:10035000F389E02D80818F7D80830895EF92FF9255
:100360000F931F93CF93DF93EC0181E0888F9B8DD8
:100370008C8D981305C0E889F989808185FD26C098
:10038000F62E0B8D10E00F5F1F4F0F731127E02E1D
:100390008C8DE8120CC00FB607FCFACFE889F989FA
:1003A000808185FFF5CFCE010E948C01F1CF8B8D2E
:1003B000FE01E80FF11DE35AFF4FF0829FB7F8945A
:1003C0000B8FEA89FB89808180620AC09FB7F8940D
:1003D000EE89FF896083E889F98980818370806470
:1003E00080839FBF81E090E0DF91CF911F910F91BB
:1003F000FF90EF900895CF93DF93EC01888D8823D1
:10040000C9F0EA89FB89808185FD05C0A889B98981
:100410008C9186FD0FC00FB607FCF5CF808185FF5C
:10042000F2CFA889B9898C9185FFEDCFCE010E94CA
:100430008C01E7CFDF91CF91089580E090E0892B88
:1004400029F00E94820181110C940000089590E02F
:10045000FC01EE0FFF1FED53FE4FA591B4912C91BF
:10046000FC01EA57FB4F30812083880F991FFC0164
:10047000E85BFE4F0190F081E02D8081089585EDCD
:100480008093BC008091BC0084FDFCCF10923305AA
:10049000089540913304262F30E0240F311D21327E
:1004A0003105DCF4209133052430C9F4FC0180E0EF
:1004B00090E0861758F4309133042191DC01AD5E51
:1004C000BB4FA30FB11D2C930196F3CF8091330442
:1004D000680F6093330480E0089581E0089582E01E
:1004E0000895089508950895E091230780912207C3
:1004F000E81730F4F0E0E351FB4F808190E008957D
:100500008FEF9FEF0895909123078091220798170E
:1005100050F4E92FF0E0E351FB4F208130E09F5F82
:100520009093230702C02FEF3FEFC90108958091F8
:10053000220790E020912307821B91090895CF9212
:10054000DF92EF92FF920F931F93CF93DF937C0183
:10055000CB018A012091C904222389F0EB016B01B0
:10056000C40ED51ECC15DD0569F06991D701ED915A
:10057000FC910190F081E02DC7010995F3CF642F24
:100580000E944902C801DF91CF911F910F91FF9006
:10059000EF90DF90CF900895CF93DF931F92CDB768
:1005A000DEB769832091C9042223D1F02091EC04A5
:1005B000203240F021E030E0FC013383228380E0F0
:1005C00090E015C08091CA04E82FF0E0E553FB4F9E
:1005D000998190838F5F8093CA048093EC0405C057
:1005E00061E0CE0101960E94490281E090E00F9007
:1005F000DF91CF910895089580E090E008950E94E2
:100600007B17CF92DF92EF92FF921F93CF93DF93EE
:10061000FC012689222339F01EBC00000DB407FE20
:10062000FDCF1EB526C0EC0161E081810E94940CD3
:10063000E12CF12C10E0CC24C394D12C8B810E94AE
:100640006B0C892B39F0C6010E2C01C0880F0A945F
:10065000EAF7182B60E089810E94940C61E089819F
:100660000E94940CFFEFEF1AFF0A88E0E816F104ED
:1006700029F7812FDF91CF911F91FF90EF90DF90AD
:10068000CF900895CF93DF93EC018E8187FD07C053
:1006900061E00E94F50C60E08E810E94940C81E084
:1006A0008983DF91CF910895FC0124813581232B2B
:1006B00031F421E061157105A1F0FB0108C0FC01D6
:1006C000808191816115710531F421E0FC01808107
:1006D000882339F005C00E94891721E0892B09F091
:1006E00020E0822F0895EF92FF920F931F93CF93F4
:1006F000DF93EC017B018A0188819981009729F0C1
:100700002A813B8124173507F8F4B8016F5F7F4FCA
:100710000E94B516009759F0998388831B830A833A
:100720002C813D81232B81F4FC0110820DC0888136
:100730009981009711F00E942C16198218821D824F
:100740001C821B821A8207C01D830C83B70188811B
:1007500099810E949217CE01DF91CF911F910F9145
:10076000FF90EF900895FC01808191810C942C16EC
:10077000FC0111821082138212821582148261158B
:10078000710551F0FB0101900020E9F73197AF01AD
:10079000461B570B0C94730308951F920F920FB6CC
:1007A0000F9211242F933F934F935F936F937F93F7
:1007B0008F939F93AF93BF93EF93FF9384E395E061
:1007C0000E948C01FF91EF91BF91AF919F918F910A
:1007D0007F916F915F914F913F912F910F900FBE3D
:1007E0000F901F9018951F920F920FB60F92112421
:1007F0002F938F939F93EF93FF93E0914405F09194
:1008000045058081E0914A05F0914B0582FD12C0BB
:10081000908180914D058F5F8F7320914E058217D7
:1008200051F0E0914D05F0E0EC5CFA4F958F80932C
:100830004D0501C08081FF91EF919F918F912F9184
:100840000F900FBE0F901F901895EF92FF920F938D
:100850001F93CF93DF93FC012689222339F06EBDCD
:1008600000000DB407FEFDCF8EB527C0062FEC01AA
:1008700061E081810E94940CE12CF12C10E060E099
:1008800089810E94940CC8010E2C02C09595879511
:100890000A94E2F780FF02C061E001C060E08A8153
:1008A0000E94940C61E089810E94940CFFEFEF1A82
:1008B000FF0A88E0E816F10411F7DF91CF911F914C
:1008C0000F91FF90EF900895682F81ED95E00C94C3
:1008D000CC0208958CBD9DBD0895CF92DF92EF921A
:1008E000FF920F931F93CF93DF937C016B01C42F73
:1008F000FC018589042F10E08823A1F186898823D3
:1009000021F081E790E00E946A0460E0F7018081B5
:100910000E94940C62E070E080E090E00E94560D2E
:1009200063E0C7010E942504E6010C0D1D1DC017E0
:10093000D10759F061E070E080E090E00E94560D30
:10094000C7010E9401038993F2CF61E0F701808122
:10095000DF91CF911F910F91FF90EF90DF90CF909B
:100960000C94940C62E070E080E090E00E94560DE0
:1009700062E06C0F613208F060E284E20E941D0ABE
:10098000109223078093220781ED95E00E94830255
:10099000E6010C0D1D1DC017D10761F061E070E08C
:1009A00080E090E00E94560D81ED95E00E94830268
:1009B0008993F1CFDF91CF911F910F91FF90EF902D
:1009C000DF90CF900895CF92DF92EF92FF920F9336
:1009D0001F93CF93DF93EC016B01E12CF12C8D89F8
:1009E000882309F18E89882321F081E790E00E9415
:1009F0006A0460E088810E94940C62E070E080E00C
:100A000090E00E94560D62E0CE010E942504CE01C6
:100A10000E940103082F61E088810E94940C11E07C
:100A2000013039F41CC08C810E946B0C11E08823CA
:100A3000B1F010E0C114D10459F08AE0E80EF11CC5
:100A4000CE14DF0428F48CE893E00E94DB0807C092
:100A50006AE070E080E090E00E94560DC0CF812FE8
:100A6000DF91CF911F910F91FF90EF90DF90CF908A
:100A70000895CF92DF92EF92FF920F931F93CF933F
:100A8000DF93CDB7DEB729970FB6F894DEBF0FBE60
:100A9000CDBF8C01DC0118968D919C911997892B03
:100AA00009F4A3C00E94310DF801C684D784E08800
:100AB000F188DC01CB018C199D09AE09BF098C328C
:100AC0009140A105B10570F3F894D80114968D9169
:100AD0009C9115979A8389831896ED91FC911997AB
:100AE0007F01BFEFEB1AFB0A80818987F8019081B3
:100AF0000288F389E02DD80154968C91992309F44A
:100B000030C09081982B98879081809589238F831E
:100B10008F818C8388E08B8358856F8149853B81E9
:100B20002C8189819A81D701508347FD252F3A95E1
:100B30002083262F39F0441F00C00000608300008E
:100B400000C0F2CF38E04D9160830000019761F75B
:100B5000D8015396FC93EE93529749873B832C839D
:100B60003AC09081982B98879081809589238F83B4
:100B70008F818E8388E08D8358856F8149853D8183
:100B80002E8189819A81D701508347FD252F00C08E
:100B900000C0208300C000C000C000C000C060834F
:100BA0000000262F3A9541F0441F000000C000C00D
:100BB00000C000C000C0E8CF38E04D9100C06083A5
:100BC00000C0019709F7D8015396FC93EE93529712
:100BD00049873D832E839A83898378940E94310DBF
:100BE000F80166877787808B918B29960FB6F894EA
:100BF000DEBF0FBECDBFDF91CF911F910F91FF9050
:100C0000EF90DF90CF9008951F920F920FB60F9242
:100C100011242F933F934F935F936F937F938F9301
:100C20009F93AF93BF93EF93FF9382E00E942702BD
:100C3000FF91EF91BF91AF919F918F917F916F91B4
:100C40005F914F913F912F910F900FBE0F901F908A
:100C500018951F920F920FB60F9211242F933F9366
:100C60004F935F936F937F938F939F93AF93BF93B4
:100C7000EF93FF9381E00E942702FF91EF91BF91D4
:100C8000AF919F918F917F916F915F914F913F9124
:100C90002F910F900FBE0F901F9018951F920F92DB
:100CA0000FB60F9211242F933F934F935F936F933F
:100CB0007F938F939F93AF93BF93EF93FF9380E0C6
:100CC0000E942702FF91EF91BF91AF919F918F9169
:100CD0007F916F915F914F913F912F910F900FBE38
:100CE0000F901F9018951F920F920FB60F9211241C
:100CF0002F933F934F935F936F937F938F939F9324
:100D0000AF93BF93EF93FF938091B900887F8036B4
:100D100009F49CC068F5883209F45BC090F4803116
:100D200009F454C038F4882309F4F6C0883009F473
:100D30004DC0F6C0883109F44CC0803209F45DC062
:100D4000EFC0803409F468C048F4803309F455C01A
:100D5000883309F0E5C080933105D8C0803509F4A7
:100D60004FC0883509F45DC0883409F0D9C0D6C0B9
:100D7000883909F4C7C0A8F4883709F467C038F483
:100D8000883609F463C0803709F460C0C9C0883868
:100D900009F4B8C0803909F45FC0803809F0C0C0D8
:100DA0005BC0803B09F486C038F4803A09F466C021
:100DB000883A09F47FC0B4C0803C09F4A7C0883CDD
:100DC00009F4A4C0883B09F48AC0AAC080912E050A
:100DD00010C09091300580912F05981770F5E09123
:100DE000300581E08E0F80933005F0E0E35FFA4F2D
:100DF00080818093BB0085EC86C0809331058EC0D6
:100E0000E091300581E08E0F809330058091BB002A
:100E1000F0E0E35FFA4F80839091300580912F05D9
:100E20006EC0E091300581E08E0F80933005809197
:100E3000BB00F0E0E35FFA4F8083809132058111BF
:100E40006DC081E080932D0584EA61C083E08093CA
:100E5000330510925504CFCF80915504803208F0AD
:100E600051C0E091550481E08E0F8093550480912C
:100E7000BB00F0E0EB5CFB4F8083BDCF85EC809343
:100E8000BC001092330580915504803230F4E0911B
:100E90005504F0E0EB5CFB4F10826091550470E06C
:100EA000E0911E07F0911F0785E394E009951092E9
:100EB000550436C084E080933305109234041092B8
:100EC0003304E0912007F0912107099580913304C4
:100ED000811105C081E08093330410921304E091E6
:100EE000340481E08E0F80933404F0E0ED5EFB4F1C
:100EF00080818093BB0090913404809133049817D3
:100F000008F479CF85E88093BC000AC085EC809313
:100F1000BC001092330504C0109231050E943F02BC
:100F2000FF91EF91BF91AF919F918F917F916F91C1
:100F30005F914F913F912F910F900FBE0F901F9097
:100F400018958F929F92AF92BF92CF92DF92EF92BD
:100F5000FF920F931F93CF93DF9382E0C82E84E01C
:100F6000D82E9CE0E92E91E0F92E08E111E0812CC9
:100F7000912C5401C0E0D0E0F60180819181C80F2E
:100F8000D91F85E993E00E94080A4AE0C501B4012F
:100F90000E949B0981EC93E00E94080AF60181916E
:100FA00091916F018230910519F48DE993E013C09E
:100FB0008130910549F4C7010E94080A8AEA93E04A
:100FC0000E94080AC80107C0892B19F48DEA93E032
:100FD00002C085EB93E00E94DB08FFEF8F1A9F0AA7
:100FE000AF0ABF0A83E0E80EF11C0D5F1F4FE4E07B
:100FF0008E169104A104B10409F0BECF8EEB93E0EC
:101000000E94080ABE010D2E000C880B990B0E944D
:10101000DC09289731F484EC93E00E94DB0881E03E
:1010200005C080E094E00E94DB0880E0DF91CF9172
:101030001F910F91FF90EF90DF90CF90BF90AF90F6
:101040009F908F9008951F93CF93DF9300D000D08F
:1010500000D0CDB7DEB7182F811103C083EF96E023
:101060000EC0813019F48EED96E009C0823019F47B
:1010700089EC96E004C0833021F484EB96E00E9472
:101080004203A89564EF71E080E090E00E94560D65
:1010900061E373E0CE0101960E94B803BE016F5F69
:1010A0007F4F812F0E944309CE0101960E94B30316
:1010B00064EF71E080E090E00E94560D6FE173E014
:1010C000CE0101960E94B803BE016F5F7F4F812F52
:1010D0000E944309CE0101960E94B30364EF71E0C0
:1010E00080E090E00E94560D6BE273E0CE01019625
:1010F0000E94B803BE016F5F7F4F812F0E9443099A
:10110000CE0101960E94B30364EF71E080E090E0AD
:101110000E94560D11110AC040E050E0BA0183EF61
:1011200096E00E94E70883EF96E023C0113051F467
:1011300040E050E0BA018EED96E00E94E7088EEDA7
:1011400096E017C0123051F440E050E0BA0189EC4B
:1011500096E00E94E70889EC96E00BC0133059F442
:1011600040E050E0BA0184EB96E00E94E70884EB8F
:1011700096E00E94390526960FB6F894DEBF0FBEA2
:10118000CDBFDF91CF911F910895009769F0FC01C9
:1011900001900020E9F73197AF01481B590BBC01C2
:1011A00084E395E00C941B0180E090E008958FEFBC
:1011B00093E00C94C508CF93DF930E94C508EC011F
:1011C0000E94D7088C0F9D1FDF91CF910895BF9289
:1011D000CF92DF92EF92FF920F931F93CF93DF9303
:1011E000FC0182819381892B09F443C06B01EE24B9
:1011F000FF24BC2C052F162F272F3327B02FA42F09
:101200008781882361F0C89E60011124BD2C809FD6
:1012100080011124B12F849F90011124A32F958563
:10122000D285208531859D17A1F0472F5527662748
:1012300077278901090F111D882349F090E0849FC9
:101240007001859FF00C949FF00C11244F2DE80144
:1012500048838285A901480F511DEA01B882838520
:10126000E901C80FD11DB8838485F901E80FF11D8C
:10127000A083DF91CF911F910F91FF90EF90DF90AE
:10128000CF90BF9008950F931F93CF93C82F8B01DA
:1012900061E373E0C8010E945403811112C06FE141
:1012A00073E0C8010E945403811110C06BE273E027
:1012B000C8010E94540381110EC040E050E0BA0101
:1012C0000EC040E050E06FEF70E009C040E05FEF1B
:1012D00060E070E004C04FEF5FEF6FEF70E0C111AE
:1012E00007C083EF96E00E94E70883EF96E01AC0FC
:1012F000C13039F48EED96E00E94E7088EED96E05D
:1013000011C0C23039F489EC96E00E94E70889ECFC
:1013100096E008C0C33059F484EB96E00E94E708D9
:1013200084EB96E0CF911F910F910C943905CF91EA
:101330001F910F9108958F929F92AF92BF920F933A
:101340001F93CF93DF93CDB7DEB7A1970FB6F89475
:10135000DEBF0FBECDBF19A2423008F44AE08E01B5
:101360000F5D1F4F842E912CA12CB12CA50194014F
:101370000E946C15E62FB901CA0101501109EA302B
:1013800014F4E05D01C0E95CD801EC93232B242B1D
:10139000252B61F7C8010E94C508A1960FB6F894E5
:1013A000DEBF0FBECDBFDF91CF911F910F91BF90D8
:1013B000AF909F908F900895CF92DF92EF92FF921F
:1013C000CF93DF9397FF1BC06B017C016DE284E339
:1013D00095E00E94AE01EC0166277727CB016C19DE
:1013E0007D098E099F094AE00E949B098C0F9D1F71
:1013F000DF91CF91FF90EF90DF90CF9008954AE07A
:10140000DF91CF91FF90EF90DF90CF900C949B09EC
:101410000C94C508CF93DF93FC0144815581608112
:10142000718184E395E00E941B01EC010E94D708C2
:101430008C0F9D1FDF91CF910895909133059111ED
:10144000FCCF91E090933305909332052FEF2093DA
:10145000310510923005260F20932F0590932E050D
:1014600090912E05880F892B80932E0580912D0554
:10147000813061F410922D0580912E058093BB0080
:101480008091BC0083FDF8CF85EC01C085EE809390
:10149000BC00809133058130E1F3809130058617DF
:1014A00010F460913005ADE0B5E0EDEEF4E080E0E1
:1014B000861721F09D9191938F5FFACF0895282F81
:1014C0003091EC04313208F04AC08091330581112B
:1014D000FCCF9091EB0442E040933305209332051A
:1014E0002FEF209331051092300530932F05EBEC50
:1014F000F4E0ADE0B5E020E0321721F041914D93EA
:101500002F5FFACF10922E0520912E05990F922B66
:1015100090932E0590912D05913061F410922D0538
:1015200090912E059093BB009091BC0093FDF8CF55
:1015300095EC01C095EE9093BC00909133059230EC
:10154000E1F3909131059F3F79F080913105803230
:1015500041F080913105803331F084E005C081E0B5
:1015600003C082E001C083E01092CA041092EC0430
:101570001092C90408958F929F92AF92BF92CF921A
:10158000DF92EF92FF920F931F93CF93DF9300D0E0
:1015900000D000D0CDB7DEB78C016A01FC0185898F
:1015A000EE24E394E60E882309F45FC0868988233D
:1015B00021F081E790E00E946A0460E0F8018081F8
:1015C0000E94940C62E070E080E090E00E94560D72
:1015D00061E0C8010E94250460E0C8010E94250462
:1015E00060E0C8010E9425046FEFC8010E94250435
:1015F0006E2DC8010E9425046E2D6195C8010E94C0
:10160000250464EDC8010E942504A12C93EDB92E98
:10161000F12CF1E0EF1AF1088A2D90E08E159F056C
:1016200074F49C0127573B4F4901F9016081C801BF
:101630000E942504F4018081B80EA394EDCF6B2D98
:101640006095C8010E94250460E0C8010E9425043D
:1016500061E0F80180810E94940CF801868988235A
:1016600009F449C00E94690446C062E070E080E06D
:1016700090E00E94560D81E08093C90484E280933B
:10168000EB041092CA041092EC0480E00E946404FF
:1016900080E00E9464048FEF0E9464048E2D0E94FB
:1016A00064048E2D81950E94640484ED0E9464047C
:1016B000812C83ED982EF12CF1E0EF1AF108882DA2
:1016C00090E08E159F056CF49C0127573B4F590104
:1016D000F90180810E946404F5018081980E839451
:1016E000EECF892D80950E94640480E00E946404FE
:1016F00081E00E945F0AB601C8010E94E304F82E4F
:10170000811102C0F12C1AC046E0BE016F5F7F4F0D
:10171000C8010E946D0446E050E064E271E0CE0131
:1017200001960E949917892B69F7F801858988230A
:1017300029F0B601C8010E94E304F82E8F2D2696E9
:101740000FB6F894DEBF0FBECDBFDF91CF911F91D2
:101750000F91FF90EF90DF90CF90BF90AF909F9050
:101760008F900895833081F028F4813099F0823091
:10177000A1F008958730A9F08830B9F08430D1F411
:10178000809180008F7D03C0809180008F7780934F
:101790008000089584B58F7702C084B58F7D84BDA5
:1017A00008958091B0008F7703C08091B0008F7D45
:1017B0008093B0000895CF92DF92EF92FF921F9333
:1017C000CF93DF93EC017B016A018AE48093890463
:1017D00081E080938A0410928B0440E050E063E043
:1017E000CE010E94BB0A182F882359F18D898823C6
:1017F00081F044E169E874E0CE010E946D048091BB
:1018000090048130F1F480919504F601808380E0AA
:1018100008C060E070E0CE010E94E3048111E9CFCE
:1018200010C090919504891768F4282F30E0F901D1
:10183000E757FB4F9585F701E20FF31F90838F5F0A
:10184000F0CF10E0812FDF91CF911F91FF90EF90AB
:10185000DF90CF900895EDEDF5E091816281808178
:10186000238131E03093C9042093EB041092CA0421
:101870001092EC0460956923682B81ED95E00E943D
:10188000CC0281E00C945F0A0F931F93CF93DF93F8
:101890008C01C0E0D0E0F801EC0FFD1F64916623DD
:1018A00041F084E395E00E94AE01892B11F021966E
:1018B000F2CFCE01DF91CF911F910F910895CF9379
:1018C000DF930E94440CEC010E94D7088C0F9D1FEF
:1018D000DF91CF910895CF93DF93282F30E0F90166
:1018E000E753FE4F8491F901ED57FE4FD491F90172
:1018F000EF55FE4FC491CC2391F081110E94B20BA1
:10190000EC2FF0E0EE0FFF1FE154FE4FA591B491D4
:10191000EC91ED2381E090E021F480E002C080E0D2
:1019200090E0DF91CF9108951F93CF93DF93282FFD
:1019300030E0F901E753FE4F8491F901ED57FE4F76
:10194000D491F901EF55FE4FC491CC23C1F0162F6D
:1019500081110E94B20BEC2FF0E0EE0FFF1FE95651
:10196000FE4FA591B4919FB7F894111104C08C91CA
:10197000D095D82302C0EC91DE2BDC939FBFDF9182
:10198000CF911F9108951092230710922207109271
:10199000CA041092EC041092330581E08093320562
:1019A00010922D0561E082E10E94940C61E083E1D8
:1019B0000E94940CE9EBF0E080818E7F808380812F
:1019C0008D7F808388E48093B80085E48093BC0099
:1019D00081E792E0909321078093200782E792E0CD
:1019E00090931F0780931E070895CF93DF9390E095
:1019F000FC01ED57FE4F2491FC01EF55FE4F849101
:101A0000882361F190E0880F991FFC01EB54FE4F91
:101A1000C591D491FC01E956FE4FA591B491611195
:101A200009C09FB7F8948881209582238883EC9120
:101A30002E230BC0623061F49FB7F8948881322F57
:101A4000309583238883EC912E2B2C939FBF06C067
:101A50008FB7F894E8812E2B28838FBFDF91CF9129
:101A600008953FB7F8948091250790912607A0919B
:101A70002707B091280726B5A89B05C02F3F19F06E
:101A80000196A11DB11D3FBFBA2FA92F982F8827FE
:101A9000820F911DA11DB11DBC01CD0142E0660F59
:101AA000771F881F991F4A95D1F708958F929F92AB
:101AB000AF92BF92CF92DF92EF92FF926B017C01C7
:101AC0000E94310D4B015C01C114D104E104F10409
:101AD000F1F00E94310DDC01CB0188199909AA09A6
:101AE000BB09883E9340A105B10570F321E0C21AFD
:101AF000D108E108F10888EE880E83E0981EA11C49
:101B0000B11CC114D104E104F10419F7DDCFFF9039
:101B1000EF90DF90CF90BF90AF909F908F900895FF
:101B20001F920F920FB60F9211242F933F938F9312
:101B30009F93AF93BF9380911A0790911B07A09139
:101B40001C07B0911D073091240723E0230F2D3788
:101B500020F40196A11DB11D05C026E8230F0296B1
:101B6000A11DB11D2093240780931A0790931B0792
:101B7000A0931C07B0931D0780912507909126071D
:101B8000A0912707B09128070196A11DB11D809350
:101B9000250790932607A0932707B0932807BF91A6
:101BA000AF919F918F913F912F910F900FBE0F900A
:101BB0001F901895CF93DF93CDB7DEB7AA970FB6D6
:101BC000F894DEBF0FBECDBF789484B5826084BD2B
:101BD00084B5816084BD85B5826085BD85B5816031
:101BE00085BD80916E00816080936E0010928100AF
:101BF000809181008260809381008091810081606A
:101C0000809381008091800081608093800080912A
:101C1000B10084608093B1008091B00081608093B6
:101C2000B00080917A00846080937A0080917A007D
:101C3000826080937A0080917A00816080937A003C
:101C400080917A00806880937A001092C10082E7C8
:101C500091E00E94DB0899E288E10FB6F894A8951C
:101C6000809360000FBE909360000E94C30CE091CF
:101C70004405F091450582E08083E0914005F091B4
:101C800041051082E0914205F091430580E1808397
:101C900010924C05E0914805F091490586E080835B
:101CA000E0914605F0914705808180618083E09155
:101CB0004605F0914705808188608083E091460564
:101CC000F0914705808180688083E0914605F0911E
:101CD000470580818F7D808364E170E080E090E043
:101CE0000E94560D1A8219821C821B821E821D823E
:101CF0006091140770911507AE014F5F5F4F1A0195
:101D00006115710539F04091180750911907C1010B
:101D10000E94730384EB90E00E945F0C8EE890E0D9
:101D20000E945F0C88E690E00E945F0C0E94D7083A
:101D3000C1010E940A0A0E94D70864E170E080E0B5
:101D400090E00E94560DC1010E94B3038FE791E01D
:101D50000E94DB0884E197E00E940A0A8EE097E087
:101D60000E940A0A88E097E00E940A0A0E94D708A7
:101D70008DE891E00E94DB0880E00E94230881E06A
:101D80000E94230882E00E94230883E00E94230827
:101D9000A8950E94D70887E991E00E94DB0888E6B1
:101DA00091E00E945F0C8CE591E00E945F0C58E08E
:101DB000C52ED12CE12CF12C00E0BB24B3941C2DBA
:101DC000B092C904C092EB041092CA041092EC04C1
:101DD00081E00E945F0A81113EC08CE491E00E9484
:101DE000440C4AE0C701B6010E949B0987E491E0D8
:101DF0000E94440C40E1C701B6010E949B0985E4A2
:101E000091E00E94440C173219F48DE391E018C060
:101E1000183319F48BE291E013C0193319F487E1F8
:101E200091E00EC01C3319F48BE091E009C01F3320
:101E300019F481E091E004C0163121F48DEE90E0B8
:101E40000E94440C0E94D7080F5F63E070E080E0BE
:101E500090E00E94560D5FEFC51AD50AE50AF50A13
:101E600088E7C816D104E104F10409F0A8CF86EE92
:101E700090E00E94440C602F70E080E090E04AE027
:101E80000E949B098AED90E00E945F0C81EA91E03C
:101E90000E94DB080E94D7088AEB91E00E94DB08D1
:101EA000A8950E94D70883EC91E00E94DB08E2E04D
:101EB000F4E0FAA7E9A70CEF15E0412C512C320110
:101EC00035E0C32E44E1D42EAE014F5E5F4F58A7DC
:101ED0004FA3F10127E011922A95E9F764E170E040
:101EE00080E090E00E94560DA8958EEC91E00E9453
:101EF000080AC301B2010E94DC090E94D708F80158
:101F00008589882309F45BC08689882309F437C052
:101F1000FFB6F89480910A04811127C0EBEAF1E042
:101F20008491EDE8F1E09491E82FF0E0EE0FFF1FCF
:101F3000EB54FE4FA591B4918C91982321F461E06C
:101F40008AE00E94940C61E08AE00E94F50C8CB556
:101F500080618CBD8CB580648CBD61E08DE00E9499
:101F6000F50C61E08BE00E94F50C80910A048F5F14
:101F700080930A04FFBE81E790E00E946A0460E05B
:101F8000F80180810E94940C68EE73E080E090E09C
:101F90000E94560DF2E0F093890448EE53E061E0B0
:101FA000C8010E94BB0A61E0F80180810E94940C84
:101FB000F8018689882301F10E9469041DC00E94EE
:101FC000C30C61E0F80185810E94940C60E0F80187
:101FD00085810E94940C60E971E080E090E00E94AD
:101FE000560D61E0F80185810E94940C6AE070E072
:101FF00080E090E00E94560DF2E3F0938904C092D5
:102000008A042FEF20938B0481E080938C04C0928C
:102010008D0448EE53E065E0C8010E94BB0AE12C44
:10202000F12C42E04093890448EE53E061E0C8019E
:102030000E94BB0A882309F4F8C24CE069E874E006
:10204000C8010E946D0446E050E060E071E089E85C
:1020500094E00E949917892B09F0E7C2F80185895D
:10206000811103C0E7E0F0E002C0E6E0F0E0E757EE
:10207000FB4F8080912CA12CB12CBA2CA92C982C30
:1020800088248181882ABA2CA92C982C88248281C2
:10209000882ABA2CA92C982C88248381882A811418
:1020A0009104A104B10409F4C0C288E092E00E9446
:1020B000080A6B2D77278827992740E10E949B0902
:1020C0000E94D70887E192E00E94080A6A2D70E01A
:1020D00080E090E04AE00E949B096EE284E395E094
:1020E0000E94AE01692D70E080E090E04AE00E941D
:1020F0009B090E94D708D092890481E080938A04CA
:10210000D0928B0480938C0448EE53E064E0C801C5
:102110000E94BB0A882331F048E069E874E0C801F6
:102120000E946D0464E170E080E090E00E94560D32
:10213000AE014F5E5F4FB101C8010E94DB0B90E022
:10214000E9A5FAA581939193FAA7E9A7FFEF4F1AA2
:102150005F0A6F0A7F0A095E1F4F24E0421651048E
:102160006104710409F0B5CE86E292E00E94DB08BA
:10217000A8950E94D70880E392E00E94DB088CE3D8
:1021800092E00E94DB088FE38093E0050E94C30C7D
:102190008091DE058093E10561E08091E0050E9479
:1021A0001D0A1092230780932207811101C0FFCFDF
:1021B00081ED95E00E9483028093DE0564E170E08A
:1021C00080E090E00E94560D48E3E42E41E0F42EBA
:1021D0006701AA24A394B12CF601219131916F01DA
:1021E0008091DF05850101C0000F2A95EAF7802B59
:1021F0008093DF058091DD05902F90958923809352
:10220000DD050E942B0C8091DD05082B0093DD0578
:102210000E942B0C64E170E080E090E00E94560D7B
:10222000F8E4CF16F1E0DF06B9F668EB7BE080E07A
:1022300090E00E94560D20E3C22E21E0D22EAA2467
:10224000A394B12CF60191906F01F70101911191C6
:102250007F0198013327992049F03091DD05C501B0
:1022600001C0880F2A95EAF7832B0BC09091DD05FA
:10227000A50102C0440F551F2A95E2F7842F8095CF
:1022800089238093DD050E942B0C8FE492E00E944D
:10229000080A85E592E00E94080AB801110F880B30
:1022A000990B0E94DC098DE592E00E94080A692DD5
:1022B00070E080E090E04AE00E949B090E94D7080D
:1022C00064E170E080E090E00E94560D58E4E5166D
:1022D00051E0F50609F0B6CF0E94D70887E692E0F4
:1022E0000E94DB0864E170E080E090E00E94560DFF
:1022F00086E892E00E94DB08A8952FB7F8948091B9
:102300001A0790911B07A0911C07B0911D072FBFC2
:1023100080930D0490930E04A0930F04B0931004C7
:1023200081E0809311040E94D70881E992E00E9425
:10233000DB080E94D7088CE992E00E94DB080E942B
:10234000D7083E0189E1680E711CA89587E0F3016A
:1023500011928A95E9F788E0EFA1F8A511928A9584
:10236000E9F7AE014F5E5F4F7A0188E1882E81E088
:10237000982E92E0C92E94E0D92E0CEF15E0A12CF6
:10238000B12C55245394A895AE014A5D5F4FB3011B
:10239000C8010E94DB0B882309F4B8C041E050E07B
:1023A000F701518340838EA1843019F08AEC92E0CA
:1023B00076C196E0E6E0F1E0D8011E9601900D921C
:1023C0009A95E1F794E0F301D801169601900D92E9
:1023D0009A95E1F7F8018587F0E4F093890450922B
:1023E0008A0420E620938B0450928C0486E0F80146
:1023F0003E96ADE8B4E001900D928A95E1F7F801C0
:102400008681809393048781809394048085809350
:10241000950481858093960448EE53E06EE0C801F0
:102420000E94BB0A882359F04CE069E874E0C801B7
:102430000E946D0444244394809190048111412CA6
:1024400064E670E080E090E00E94560D41100FC0FD
:1024500066ED72E0CE0180960E94B803CE018096B0
:102460000E940A0ACE0180960E94B30316C1F0E4CE
:10247000F093890450928A0420E320938B045092B5
:102480008C0448EE53E064E0C8010E94BB0A882334
:1024900009F4FFC04AE169E874E0C8010E946D04D4
:1024A000809190048111F5C080E1E1E9F4E0D1016F
:1024B00001900D928A95E1F71C82B101C4010E943E
:1024C00092172A8130E0ECE0F1E090E08FEF41815B
:1024D000042E000C550B4217530709F4892F33962D
:1024E0009F5F9430A1F790E08A159B0549F442E084
:1024F00050E0F60151834083F7015183408309C0C6
:1025000041E050E0F601518340831AC0F701118287
:102510001082F70180819181F60120813181281795
:10252000390741F0918380838FE093E00E94DB08BC
:10253000109212046AE070E080E090E00E94560D74
:10254000FFEFAF1ABF0A095E1F4F22E0C20ED11C77
:1025500042E0E40EF11C53E0850E911C84E0A816C5
:10256000B10409F010CF6AE074E0E2E0F4E021E0A9
:1025700080E090E041915191840F951F452B09F423
:1025800020E06E177F07B1F70897C1F410E06FE104
:1025900073E0C1010E94B803B101812F0E94430979
:1025A000C1010E94B3031F5F143089F7A8950E94F0
:1025B000A10790911204811135C074C0211121C06E
:1025C00002E014E0F12CF801819191918F01892BA7
:1025D00019F465E273E002C06BE273E0CE0101968C
:1025E0000E94B803BE016F5F7F4F8F2D0E94430989
:1025F000CE0101960E94B303F394F4E0FF12E3CFFF
:10260000D5CF10E061E373E0C1010E94B803B101CE
:10261000812F0E944309C1010E94B3031F5F143040
:1026200089F7C4CF91113EC070C085E393E00E944A
:10263000DB0846E0E416F10444F184EE91E00E94E8
:10264000DB0885E791E00E945F0C62E370E080E0C8
:1026500090E00E94560D73E0872E912CA12CB12C96
:102660004AE0C501B4010E949B090E94D70864E6B4
:1026700070E080E090E00E94560DF1E08F1A910822
:10268000A108B10869F70C9400004FEFE41AF40AAE
:10269000C8CC8DE493E00E94DB088DE693E00E94B5
:1026A000DB084ECF91110EC08091DD0580628093D2
:1026B000DD050E942B0C8091DD058F7E8093DD056A
:1026C0000E942B0C809111048823E1F02FB7F8941D
:1026D00080911A0790911B07A0911C07B0911D07CC
:1026E0002FBF40910D0450910E0460910F04709122
:1026F0001004841B950BA60BB70B88389341A105DA
:10270000B10548F50E941D0220CE89E793E00E94A2
:10271000DB08109211048091DD058F7D8093DD052B
:102720000E942B0C8091DD0580618093DD050E9465
:102730002B0C68EB7BE080E090E00E94560D8091CE
:10274000DD0580628093DD050E942B0C81E0809383
:102750001204A895B7CF2FB7F89480911A079091DB
:102760001B07A0911C07B0911D072FBF80930D047C
:1027700090930E04A0930F04B093100483E893E0A9
:102780000E94080A60910B0470910C04072E000C43
:10279000880B990B0E94DC090E94D70880910B04DA
:1027A00090910C04019690930C0480930B040E946A
:1027B000A107A8CFCF93DF93EC0188859985009777
:1027C00011F00E942C168E8187FD05C060E0DF911C
:1027D000CF910C94F50CDF91CF91089584EB96E0A6
:1027E0000E94DA1389EC96E00E94DA138EED96E0EF
:1027F0000E94DA1383EF96E00E94DA1388E097E0F4
:102800000E94B3038EE097E00E94B30384E197E057
:102810000C94B303CF93DF93EC01862F68839DE084
:1028200099839BE09A839CE09B831C821D8291E0AC
:102830009D8B1E8A61E00E94F50C61E088810E94F8
:10284000940C61E089810E94F50C61E08A810E940C
:10285000F50C60E08B81DF91CF910C94F50C1F9308
:10286000CF93DF93EC01162F19821F821E861F86DD
:10287000188A198A81E08D878A871B8692E09C8757
:10288000888383E090E09D838C830E9494159987D0
:102890008887009751F023E0FC0111922A95E9F70F
:1028A00081E090E09B838A8304C01D821C821B828E
:1028B0001A821E838981882341F061E0812F0E9462
:1028C000F50C60E0812F0E94940C812F90E0FC01B8
:1028D000EF55FE4FE491F0E0EE0FFF1FE956FE4F7B
:1028E000259134913B8B2A8BFC01ED57FE4FE491EF
:1028F000EC8BDF91CF911F910895E4E3F5E0138213
:10290000128288EE93E0A0E0B0E084839583A683F2
:10291000B78322E531E03183208325EC30E0358731
:10292000248724EC30E03787268720EC30E0318B99
:10293000208B21EC30E0338B228B22EC30E0358B86
:10294000248B26EC30E0378B268B118E128E138E63
:10295000148EE1EDF5E01382128284839583A683C1
:10296000B78384E691E0918380836AED73E084E12C
:1029700097E00E94B80366EE73E08EE097E00E9455
:10298000B80361EF73E088E097E00E94B80369E064
:1029900083EF96E00E942F1466E08EED96E00E9491
:1029A0002F1465E089EC96E00E942F1463E084EB1D
:1029B00096E00E942F1468E08DE996E00E940A14C8
:1029C00067E086E896E00E940A1464E08FE696E0ED
:1029D0000E940A1462E088E596E00E940A1487E1EA
:1029E000EDE9F6E0ACEFB5E001900D928A95E1F7E4
:1029F00087E1E6E8F6E0A3E1B6E001900D928A9562
:102A0000E1F787E1EFE6F6E0AAE2B6E001900D9289
:102A10008A95E1F787E1E8E5F6E0A1E4B6E0019008
:102A20000D928A95E1F7EDEDF5E0108211821282A8
:102A300013821482158216821782108611861286DE
:102A40001386148615861686108A1786128A118AAE
:102A5000148A138A168A158A108E178A128E118E7E
:102A6000148E138E168E158E08952F923F924F92CC
:102A70005F926F927F928F929F92AF92BF92CF920E
:102A8000DF92EF92FF920F931F93CF93DF93CDB717
:102A9000DEB7CA1BDB0B0FB6F894DEBF0FBECDBF8F
:102AA00009942A88398848885F846E847D848C8460
:102AB0009B84AA84B984C884DF80EE80FD800C8169
:102AC0001B81AA81B981CE0FD11D0FB6F894DEBF4C
:102AD0000FBECDBFED010895A1E21A2EAA1BBB1BAC
:102AE000FD010DC0AA1FBB1FEE1FFF1FA217B307DA
:102AF000E407F50720F0A21BB30BE40BF50B661FF0
:102B0000771F881F991F1A9469F7609570958095B3
:102B100090959B01AC01BD01CF010895EE0FFF1F01
:102B20000590F491E02D09940F931F93CF93DF93B9
:102B30008230910510F482E090E0E0912B07F09153
:102B40002C0720E030E0A0E0B0E0309719F14081A0
:102B500051810281138148175907C8F084179507DE
:102B600069F4109731F012960C93129713961C93F8
:102B700027C000932B0710932C0722C02115310585
:102B800019F04217530718F49A01BD01EF01DF0154
:102B9000F801DBCF21153105F9F0281B390B243062
:102BA000310580F48A819B816115710521F0FB015B
:102BB0009383828304C090932C0780932B07FE019C
:102BC000329644C0FE01E20FF31F8193919322508D
:102BD0003109398328833AC02091290730912A0787
:102BE000232B41F420912C0130912D0130932A07A1
:102BF0002093290720912A0130912B0121153105BD
:102C000041F42DB73EB740912E0150912F01241B66
:102C1000350BE0912907F0912A07E217F307A0F49A
:102C20002E1B3F0B2817390778F0AC014E5F5F4F22
:102C30002417350748F04E0F5F1F50932A07409323
:102C400029078193919302C0E0E0F0E0CF01DF918A
:102C5000CF911F910F910895CF93DF93009709F4BF
:102C600081C0FC01329713821282A0912B07B09190
:102C70002C07109781F420813181820F931F2091BE
:102C8000290730912A072817390751F5F0932A07A9
:102C9000E093290767C0ED0120E030E0CE17DF07A1
:102CA00040F44A815B819E0141155105F1F0EA0132
:102CB000F5CFD383C28340815181840F951FC817FC
:102CC000D90759F488819981840F951F02969183C1
:102CD00080838A819B81938382832115310529F426
:102CE000F0932C07E0932B073DC0E901FB83EA83B7
:102CF00049915991C40FD51FEC17FD0761F48081EC
:102D00009181840F951F0296E901998388838281BE
:102D100093819B838A83E0E0F0E012968D919C91F1
:102D20001397009719F0FD01DC01F7CF8D919C916D
:102D300011979D012E5F3F4F820F931F209129070E
:102D400030912A072817390769F4309729F410922F
:102D50002C0710922B0702C013821282B0932A070D
:102D6000A0932907DF91CF910895A0E0B0E0EBEBAD
:102D7000F6E10C943915EC01009721F4CB010E9487
:102D80009415B4C0FC01E60FF71F9C0122503109D5
:102D9000E217F30708F4A8C0D9010D911C9111970F
:102DA00006171707B0F00530110508F49BC0C801DD
:102DB00004978617970708F495C002501109061B5F
:102DC000170B019311936D937C93CF010E942C16E6
:102DD00089C05B01A01AB10A4C01800E911EA0911E
:102DE0002B07B0912C07612C712CE12CF12C109742
:102DF00009F446C08D919C911197A815B905B1F5BC
:102E00006C0142E0C40ED11CCA14DB0478F14C0101
:102E10008A189B08640142E0C40ED11C1296BC9033
:102E200012971396AC91B5E0CB16D10440F0B28264
:102E3000A38391828082D9016D937C9309C00E5F38
:102E40001F4F800F911FF90191838083EB2DFA2F83
:102E5000E114F10431F0D7011396FC93EE9312972D
:102E600041C0F0932C07E0932B073CC0681679060D
:102E700008F43C017D0112960D90BC91A02DB7CFB6
:102E80008091290790912A0788169906E1F4661621
:102E90007706C8F480912A0190912B01009741F4A4
:102EA0008DB79EB740912E0150912F01841B950B39
:102EB000E817F907C8F4F0932A07E0932907F90106
:102EC000718360830FC0CB010E9494157C01009731
:102ED00059F0A801BE010E948017CE010E942C1655
:102EE000C70104C0CE0102C080E090E0CDB7DEB7DC
:102EF000EEE00C94551581E090E0F8940C94A7173F
:102F0000FB01DC0102C001900D9241505040D8F706
:102F10000895FB01DC018D91019080190110D9F316
:102F2000990B0895FB01DC0101900D920020E1F75F
:102F30000895FB01DC014150504030F08D9101902B
:102F4000801919F40020B9F7881B990B089510E037
:102F5000C0EFD0E004C0FE010E948E152196C13F53
:082F6000D107C9F7F894FFCF77
:102F680000FF06FAD503FFFFFFFFFFFF41480053AC
:102F780044004746005041005858005858005858D7
:102F8800005858000000FF00FF0000002D07200037
:102F9800010101010001010100000100020003001C
:102FA80004000500060007006B006C006D000000BF
:102FB8000000AE011B014501FB01760154016801C7
:102FC80000000000CC029F02FC02730297028302F9
:102FD800740257445420656E6461626C6564002114
:102FE8006865616465725F626567696E004C454437
:102FF8003A202E2E2E20004932433A202E2E2E2003
:10300800007375636365737366756C6C792073639D
:10301800616E6E656420493243004932433A204F5D
:103028004B2100524649443A202E2E2E2000696E2C
:10303800697469616C697A696E6720726561646533
:10304800723A2000504E35333220737461727475B1
:10305800702074696D6564206F75742C20726573B7
:1030680074617274696E6700466F756E6420636878
:10307800697020504E35004669726D77617265201F
:103088007665722E2000524649443A204F4B210063
:1030980052656C61793A202E2E2E2000696E697473
:1030A80069616C697A696E672072656C6179002064
:1030B800202020200052656C6179205B005D207320
:1030C800657420746F200073756363657373667528
:1030D8006C6C7920696E697469616C697A656420C1
:1030E80072656C61790052656C61793A204F4B21A9
:1030F800002173657475705F656E64003D3D3D3DEC
:103108003D3D3D3D3D3D3D3D3D3D3D3D3D3D3D53D1
:10311800544152543D3D3D3D3D3D3D3D3D3D3D3D90
:103128003D3D3D3D3D3D3D3D3D0046616C73652067
:1031380043617264210041757468656E74696361E6
:1031480074696F6E206661696C65642C20636172B6
:1031580064206D617920616C7265616479206265B3
:103168002061757468656E74696361746564004391
:10317800617264734368616E676564212121006729
:103188007265656E00626C61636B0077686974656F
:1031980000726564004469646E27742066696E6411
:1031A80020504E35337820626F6172640052656139
:1031B80064696E67206661696C65642C2064697354
:1031C80063617264696E672063617264007265612D
:1031D80064206661696C65640047415445204F501E
:1031E800454E0052656672657368200054494D4526
:1031F8004F555421007265616465722000436F72F7
:1032080072656374204361726400213D004E6F2033
:103218004361726400556E6B6E6F776E2100537553
:103228006D3A2000203D3D20436F72726563742023
:10323800536F6C7574696F6E0A0054686520476136
:103248006C6C6572790030392E30332E3230323062
:103258000076657273696F6E20302E314848000D14
:023268000A005A
:00000001FF
