:100000000C945E000C9486000C9486000C94860080
:100010000C9486000C9486000C9486000C94860048
:100020000C9486000C9486000C9486000C94DF04DB
:100030000C9486000C9486000C9486000C94860028
:100040000C943D040C9486000C94AD040C9487042D
:100050000C9486000C9486000C9486000C94860008
:100060000C9486000C9486000000000024002700F9
:100070002A0000000000250028002B0004040404CE
:100080000404040402020202020203030303030342
:10009000010204081020408001020408102001021F
:1000A00004081020000000080002010000030407FB
:1000B00000000000000000009B05250811241FBE61
:1000C000CFEFD8E0DEBFCDBF11E0A0E0B1E0E8EBBC
:1000D000F3E102C005900D92A833B107D9F722E0F1
:1000E000A8E3B1E001C01D92AB32B207E1F710E026
:1000F000CDE5D0E004C02197FE010E94A408CC35D4
:10010000D107C9F70E943A060C94CF090C9400005D
:10011000CF92DF92EF92FF92DC01A03282E0B8072B
:10012000D4F5A53BB10514F0A4EBB0E04091070273
:1001300028E830E0241B310947FD3395220F331F97
:10014000220F331F6901330FEE08FF0840910802A8
:1001500028E532E0241B310947FD3395220F331F78
:10016000220F331F032E000C440B550B2C193D0995
:100170004E095F09B7FF02C0B0E0A0E00E945F082F
:1001800024EB30E040E050E00E943508C20ED31E60
:10019000E41EF51ED601E0910602EC3080F52091B8
:1001A000070288E890E0821B910927FD9395880F4C
:1001B000991F880F991FA817B90784F0209108028A
:1001C00088E592E0821B910927FD9395880F991F7E
:1001D000880F991FA817B9070CF4CD010297880F53
:1001E000991F4FB7F8942E2F30E0F901EE0FFF1F43
:1001F000E20FF31FEF51FE4F928381834FBFFF90B9
:10020000EF90DF90CF9008958F929F92AF92BF9220
:10021000CF92DF92EF92FF92CF934C01AA24BB249E
:10022000C82DC72ED82EE92EFF24BC2DA62F209135
:100230001902222361F0829E40011124C92D2C9DB8
:1002400060011124BD2D269FA0011124A52FE0914E
:100250001F0240911A0250911B0230911C02E317B9
:1002600099F0692F772788279927222349F030E0D2
:10027000269F7001279FF00C369FF00C11246F2DE4
:10028000E40FF52FF11D6083E0911C02E40FF52FC0
:10029000F11DC083E0911D02E40FF52FF11DB08325
:1002A00080911E02480F511DFA01A083CF91FF904B
:1002B000EF90DF90CF90BF90AF909F908F90089578
:1002C00090E0FC01EC55FF4F2491FC01E057FF4FFB
:1002D0003491FC01E458FF4FE491EE23C9F022234E
:1002E00039F0233001F1A8F4213019F1223029F13D
:1002F000F0E0EE0FFF1FEE58FF4FA591B4918FB7BE
:10030000F894EC91611126C030953E233C938FBF49
:1003100008952730A9F02830C9F0243049F780919A
:1003200080008F7D03C0809180008F778093800054
:10033000DFCF84B58F7784BDDBCF84B58F7DFBCFD6
:100340008091B0008F778093B000D2CF8091B000C1
:100350008F7DF9CF3E2BDACFCF93DF9390E0FC0176
:10036000E057FF4F249184589F4FFC0184918823CC
:10037000D1F090E0880F991FFC01E859FF4FA5913B
:10038000B491FC01EE58FF4FC591D49161110EC09C
:100390009FB7F8948C91E22FE0958E238C9328815F
:1003A000E223E8839FBFDF91CF9108958FB7F89440
:1003B000EC91E22BEC938FBFF6CF3FB7F89480918E
:1003C000400190914101A0914201B091430126B5B5
:1003D000A89B05C02F3F19F00196A11DB11D3FBF7D
:1003E000BA2FA92F982F8827BC01CD01620F711D4C
:1003F000811D911D42E0660F771F881F991F4A9546
:10040000D1F70895CF92DF92EF92FF920F931F934F
:10041000CF93DF93CDB7DEB729970FB6F894DEBF41
:100420000FBECDBF80911A0290911B02892B09F457
:1004300080C0C0902002D0902102E0902202F09073
:1004400023020E94DD016C157D058E059F0550F489
:100450000E94DD01609320027093210280932202AA
:10046000909323020E94DD0100912002109121024D
:100470002091220230912302601B710B820B930B9F
:100480006C32714081059105A0F2F89480911502BB
:10049000909116029A838983E0911A02F0911B02CF
:1004A000DF0111968081898790911102E0912402E9
:1004B000F091250280912602992309F449C0908188
:1004C000982B98879081809589238F838F818C8347
:1004D00088E08B8358856F8149853B812C81898198
:1004E0009A81508347FD252F3A952083262F39F096
:1004F000441F00C000006083000000C0F2CF38E05D
:100500004D9160830000019761F7F0932502E0931D
:10051000240249873B832C839A83898378940E94A1
:10052000DD01609320027093210280932202909358
:10053000230229960FB6F894DEBF0FBECDBFDF9120
:10054000CF911F910F91FF90EF90DF90CF90089582
:100550009081982B98879081809589238F838F81B4
:100560008E8388E08D8358856F8149853D812E81FA
:1005700089819A81508347FD252F00C000C02083C8
:1005800000C000C000C000C000C060830000262F73
:100590003A9541F0441F000000C000C000C000C0F8
:1005A00000C0E8CF38E04D9100C0608300C00197E3
:1005B00009F7F0932502E093240249873D832E83B7
:1005C000ABCF8F929F92AF92BF92CF92DF92EF927A
:1005D000FF924B015C010E94DD016B017C010E94D6
:1005E000DD016C197D098E099F09683E7340810504
:1005F0009105A8F321E0821A9108A108B10888EEBC
:10060000C80E83E0D81EE11CF11C81149104A104E2
:10061000B10429F7FF90EF90DF90CF90BF90AF909B
:100620009F908F900895AF92BF92CF92DF92EF92FA
:10063000FF920F931F93CF93DF936C017B018B018C
:10064000040F151FEB015E01AE18BF08C017D107DC
:1006500059F06991D601ED91FC910190F081E02D66
:10066000C6010995892B79F7C501DF91CF911F91BB
:100670000F91FF90EF90DF90CF90BF90AF900895D3
:10068000FC01538D448D252F30E0842F90E0821B98
:10069000930B541710F0CF96089501970895FC011D
:1006A000918D828D981761F0A28DAE0FBF2FB11D75
:1006B0005D968C91928D9F5F9F73928F90E00895CD
:1006C0008FEF9FEF0895FC01918D828D981731F087
:1006D000828DE80FF11D858D90E008958FEF9FEFDB
:1006E0000895FC01918D228D892F90E0805C9F4FB1
:1006F000821B91098F739927089584E491E00E94E9
:10070000710321E0892B09F420E0822F089580E015
:1007100090E0892B29F00E947D0381110C94000048
:100720000895FC01A48DA80FB92FB11DA35ABF4F86
:100730002C91848D90E001968F739927848FA689E0
:10074000B7892C93A089B1898C91837080648C9334
:10075000938D848D981306C00288F389E02D8081E3
:100760008F7D80830895EF92FF920F931F93CF9315
:10077000DF93EC0181E0888F9B8D8C8D98131AC0DC
:10078000E889F989808185FF15C09FB7F894EE89C3
:10079000FF896083E889F989808183708064808320
:1007A0009FBF81E090E0DF91CF911F910F91FF906B
:1007B000EF900895F62E0B8D10E00F5F1F4F0F7313
:1007C0001127E02E8C8D8E110CC00FB607FCFACFCE
:1007D000E889F989808185FFF5CFCE010E949103D8
:1007E000F1CFEB8DEC0FFD2FF11DE35AFF4FF0829F
:1007F0009FB7F8940B8FEA89FB8980818062CFCF05
:10080000CF93DF93EC01888D8823B9F0AA89BB8947
:10081000E889F9898C9185FD03C0808186FD0DC032
:100820000FB607FCF7CF8C9185FFF2CF808185FF53
:10083000EDCFCE010E949103E9CFDF91CF910895D2
:10084000CF93DF93FC0101900020E9F73197AF01CE
:10085000481B590BBC0184E491E00E941303EC0196
:1008600042E050E068E171E084E491E00E9413030B
:100870008C0F9D1FDF91CF9108951F920F920FB69D
:100880000F9211242F933F938F939F93AF93BF9316
:1008900080913C0190913D01A0913E01B0913F01BA
:1008A00030913B0123E0230F2D3758F50196A11D10
:1008B000B11D20933B0180933C0190933D01A09397
:1008C0003E01B0933F018091400190914101A09180
:1008D0004201B09143010196A11DB11D80934001D9
:1008E00090934101A0934201B0934301BF91AF9116
:1008F0009F918F913F912F910F900FBE0F901F905E
:10090000189526E8230F0296A11DB11DD2CF1F9284
:100910000F920FB60F9211242F933F934F935F9333
:100920006F937F938F939F93AF93BF93EF93FF93B7
:1009300084E491E00E949103FF91EF91BF91AF9108
:100940009F918F917F916F915F914F913F912F91E7
:100950000F900FBE0F901F9018951F920F920FB619
:100960000F9211242F938F939F93EF93FF93E09116
:100970005401F09155018081E0915A01F0915B01A1
:1009800082FD1BC0908180915D018F5F8F732091EC
:100990005E01821741F0E0915D01F0E0EC5BFE4FFB
:1009A000958F80935D01FF91EF919F918F912F9192
:1009B0000F900FBE0F901F9018958081F4CF1F925B
:1009C0000F920FB60F9211242F933F934F935F9383
:1009D0006F937F938F939F93AF93BF93CF93DF9347
:1009E000EF93FF9380913801C0910502D0E087FF1B
:1009F00024C01092850010928400809138018F5F8E
:100A00008093380180913801082E000C990B8C17C7
:100A10009D0724F4809138018C30C4F180918400CA
:100A200090918500049680349C4908F47AC08091A6
:100A3000840090918500049676C080913801082E3C
:100A4000000C990B8C179D07C4F6E09138018E2F8E
:100A5000EE0F990BFC01EE0FFF1FE80FF91FEF518E
:100A6000FE4F808186FFC9CFE09138018E2FEE0FB7
:100A7000990BFC01EE0FFF1FE80FF91FEF51FE4F1E
:100A8000808160E08F730E946001B7CF2091840065
:100A900030918500E09138018E2FEE0F990BFC010B
:100AA000EE0FFF1FE80FF91FEF51FE4F818192817A
:100AB000820F931F9093890080938800E091380102
:100AC0008E2FEE0F990BFC01EE0FFF1FE80FF91FA1
:100AD000EF51FE4F808186FF11C0E09138018E2FCB
:100AE000EE0F990BFC01EE0FFF1FE80FF91FEF51FE
:100AF000FE4F808161E08F730E946001FF91EF9152
:100B0000DF91CF91BF91AF919F918F917F916F9125
:100B10005F914F913F912F910F900FBE0F901F90BB
:100B2000189580E49CE990938900809388008FEF6A
:100B300080933801E3CF109247011092460188EE6E
:100B400093E0A0E0B0E08093480190934901A09326
:100B50004A01B0934B018AE091E090934501809364
:100B6000440185EC90E0909351018093500184EC16
:100B700090E0909353018093520180EC90E0909329
:100B800055018093540181EC90E09093570180933C
:100B9000560182EC90E0909359018093580186ECC5
:100BA00090E090935B0180935A0110925D01109246
:100BB0005E0110925F011092600181E0809311024A
:100BC0001092120210921402109213021092160246
:100BD000109215022FEF3FEF309318022093170267
:100BE0001092190210921B0210921A0280931C029A
:100BF00010921D0292E090931E0280931F021092A9
:100C000020021092210210922202109223028FEFF2
:100C10009FEFAFEFB0E080930D0290930E02A09390
:100C20000F02B093100280E094E6A0E0B0E0809361
:100C3000090290930A02A0930B02B0930C028091D8
:100C400005028C3098F491E0980F90930502809300
:100C5000060290E0FC01EE0FFF1FE80FF91FEF51B5
:100C6000FE4F88EB9BE09283818308958FEF809302
:100C700006020895789484B5826084BD84B581604D
:100C800084BD85B5826085BD85B5816085BD809157
:100C90006E00816080936E001092810080918100CF
:100CA00082608093810080918100816080938100C7
:100CB000809180008160809380008091B100846089
:100CC0008093B1008091B00081608093B0008091EA
:100CD0007A00846080937A0080917A0082608093A9
:100CE0007A0080917A00816080937A0080917A0006
:100CF000806880937A001092C100E0915401F091D5
:100D0000550182E08083E0915001F0915101108201
:100D1000E0915201F091530180E1808310925C01D7
:100D2000E0915801F091590186E08083E0915601ED
:100D3000F0915701808180618083E0915601F091AC
:100D40005701808188608083E0915601F0915701BE
:100D5000808180688083E0915601F0915701808105
:100D60008F7D80838BE191E00E94200483E090E0FE
:100D70000E94AA0823E030E041E050E0009721F40F
:100D800030E020E050E040E0E2E8F0E0E491F0E024
:100D9000EE0FFF1FEE58FF4FA591B491E6E9F0E08A
:100DA000E49161E0609311021092120250931402D8
:100DB00040931302309316022093150226E030E090
:100DC00030931802209317021092190290931B027D
:100DD00080931A0210921C0260931D0222E020935D
:100DE0001E0210921F0210922002109221021092F5
:100DF000220210922302B0932502A0932402E093D2
:100E000026020E94460960E086E00E94AC018091C3
:100E100017029091180297FD08C061E00E94AC0192
:100E200060E0809117020E94600181E080931202CD
:100E300064E670E080E090E00E94E10260910D02C3
:100E400070910E0280910F02909110022091130276
:100E500030911402232B11F00E9404010E9402021F
:100E600068EE73E080E090E00E94E102809106026B
:100E70008C3008F051C061E089E00E94AC018091A3
:100E80000602282F30E0F901EE0FFF1FE20FF31FDB
:100E9000EF51FE4F9081907C9960908310920702F1
:100EA000109208022CE0622F0E949808829FB001E5
:100EB000112430E020E0AB01420F531FFA01EE0F86
:100EC000FF1FE40FF51FEF51FE4F908196FD16C0F6
:100ED0002F5F3F4F2C30310571F781110FC01092F9
:100EE000800082E08093810010928500109284003F
:100EF000B19A80916F00826080936F00E09106024A
:100F00008E2F90E0FC01EE0FFF1FE80FF91FEF514D
:100F1000FE4F80818064808390E080E00E948800A2
:100F200064E670E080E090E00E94E10200E010E002
:100F30008AE590E00E94880064EF71E080E090E034
:100F40000E94E10283E291E00E942004809113025A
:100F500090911402892B51F060910D0270910E0254
:100F600080910F02909110020E9404010E940202DF
:100F70006AE070E080E090E00E94E10210923A01A5
:100F800010923901C0913901D0913A01CB35D10588
:100F90007CF4CE010E94880065E070E080E090E083
:100FA0000E94E1022196D0933A01C0933901EACF21
:100FB00064EF71E080E090E00E94E10288E291E05D
:100FC0000E9420048AE590E090933A0180933901D1
:100FD000C0913901D0913A01D7FD0FC0CE010E94D6
:100FE000880065E070E080E090E00E94E1022197D7
:100FF000D0933A01C0933901EBCF809113029091C5
:101000001402892B51F06091090270910A028091BB
:101010000B0290910C020E9404010E94020280E3E4
:1010200091E00E94200464EF71E080E090E00E9473
:10103000E1020115110509F47BCF0E947D0388238D
:1010400009F476CF0E94000073CF80911A0290912C
:101050001B020E944609809117029091180297FD89
:1010600003C060E00C94AC010895052E97FB1EF4BC
:1010700000940E944C0857FD07D00E94670807FCA7
:1010800003D04EF40C944C08509540953095219522
:101090003F4F4F4F5F4F08959095809570956195A4
:1010A0007F4F8F4F9F4F08950E948908A59F900DF5
:1010B000B49F900DA49F800D911D11240895B7FF3A
:1010C0000C9454080E945408821B930B0895A1E2CB
:1010D0001A2EAA1BBB1BFD010DC0AA1FBB1FEE1FB2
:1010E000FF1FA217B307E407F50720F0A21BB30BFD
:1010F000E40BF50B661F771F881F991F1A9469F779
:1011000060957095809590959B01AC01BD01CF01D4
:101110000895A29FB001B39FC001A39F700D811DD0
:101120001124911DB29F700D811D1124911D0895F0
:10113000991B79E004C0991F961708F0961B881F29
:101140007A95C9F780950895EE0FFF1F0590F491E9
:10115000E02D09940F931F93CF93DF938230910575
:1011600010F482E090E0E0912902F0912A0230E050
:1011700020E0B0E0A0E0309799F42115310509F4A2
:101180004AC0281B390B24303105D8F58A819B8150
:101190006115710589F1FB0193838283FE0111C002
:1011A000408151810281138148175907E0F04817A7
:1011B000590799F4109761F012960C9312971396B1
:1011C0001C933296CF01DF91CF911F910F9108951B
:1011D0000093290210932A02F4CF2115310551F012
:1011E0004217530738F0A901DB019A01BD01DF0165
:1011F000F801C1CFEF01F9CF90932A028093290221
:10120000CDCFFE01E20FF31F81939193225031095C
:1012100039832883D7CF2091270230912802232BAE
:1012200041F4209102013091030130932802209370
:10123000270220910001309101012115310541F46F
:101240002DB73EB74091040150910501241B350B89
:10125000E0912702F0912802E217F307A0F42E1B79
:101260003F0B2817390778F0AC014E5F5F4F24170A
:10127000350748F04E0F5F1F509328024093270216
:10128000819391939FCFF0E0E0E09CCFCF93DF93E9
:101290000097E9F0FC01329713821282A091290293
:1012A000B0912A02ED0130E020E01097A1F42081F6
:1012B0003181820F931F2091270230912802281735
:1012C000390709F061C0F0932802E0932702DF910B
:1012D000CF910895EA01CE17DF07E8F54A815B81D7
:1012E0009E0141155105B1F7E901FB83EA8349915C
:1012F0005991C40FD51FEC17FD0761F480819181CE
:101300000296840F951FE9019983888382819381D6
:101310009B838A83F0E0E0E012968D919C91139775
:101320000097B9F52D913C911197CD010296820F4E
:10133000931F20912702309128022817390739F688
:10134000309751F510922A0210922902B093280288
:10135000A0932702BCCFD383C28340815181840FE5
:10136000951FC817D90761F44E5F5F4F8881998137
:10137000480F591F518340838A819B8193838283C5
:101380002115310509F0B0CFF0932A02E09329022C
:101390009ECFFD01DC01C0CF13821282D7CF10E0B7
:1013A000CDE5D0E004C0FE010E94A4082196CE3510
:0813B000D107C9F7F894FFCF43
:1013B80000002B02800000000000B3031303400369
:1013C800000471034F0363030D0A004C6564496E02
:1013D8006974006C6F6F70006C6F6F706D6964007A
:0813E8006C6F6F70656E64000C
:00000001FF
